{
  "_format": "hh-sol-artifact-1",
  "contractName": "GratitudeNFT",
  "sourceName": "contracts/GratitudeNFT.sol",
  "abi": [
    {
      "inputs": [],
      "stateMutability": "nonpayable",
      "type": "constructor"
    },
    {
      "anonymous": false,
      "inputs": [
        {
          "indexed": true,
          "internalType": "address",
          "name": "owner",
          "type": "address"
        },
        {
          "indexed": true,
          "internalType": "address",
          "name": "approved",
          "type": "address"
        },
        {
          "indexed": true,
          "internalType": "uint256",
          "name": "tokenId",
          "type": "uint256"
        }
      ],
      "name": "Approval",
      "type": "event"
    },
    {
      "anonymous": false,
      "inputs": [
        {
          "indexed": true,
          "internalType": "address",
          "name": "owner",
          "type": "address"
        },
        {
          "indexed": true,
          "internalType": "address",
          "name": "operator",
          "type": "address"
        },
        {
          "indexed": false,
          "internalType": "bool",
          "name": "approved",
          "type": "bool"
        }
      ],
      "name": "ApprovalForAll",
      "type": "event"
    },
    {
      "anonymous": false,
      "inputs": [
        {
          "indexed": false,
          "internalType": "address",
          "name": "sender",
          "type": "address"
        },
        {
          "indexed": false,
          "internalType": "uint256",
          "name": "tokenId",
          "type": "uint256"
        },
        {
          "components": [
            {
              "internalType": "string",
              "name": "title",
              "type": "string"
            },
            {
              "internalType": "string",
              "name": "message",
              "type": "string"
            },
            {
              "internalType": "string",
              "name": "location",
              "type": "string"
            },
            {
              "internalType": "uint256",
              "name": "timestamp",
              "type": "uint256"
            }
          ],
          "indexed": false,
          "internalType": "struct GratitudeNFT.GratitudeData",
          "name": "tokenData",
          "type": "tuple"
        }
      ],
      "name": "NewGratitudeMinted",
      "type": "event"
    },
    {
      "anonymous": false,
      "inputs": [
        {
          "indexed": true,
          "internalType": "address",
          "name": "from",
          "type": "address"
        },
        {
          "indexed": true,
          "internalType": "address",
          "name": "to",
          "type": "address"
        },
        {
          "indexed": true,
          "internalType": "uint256",
          "name": "tokenId",
          "type": "uint256"
        }
      ],
      "name": "Transfer",
      "type": "event"
    },
    {
      "inputs": [
        {
          "internalType": "address",
          "name": "to",
          "type": "address"
        },
        {
          "internalType": "uint256",
          "name": "tokenId",
          "type": "uint256"
        }
      ],
      "name": "approve",
      "outputs": [],
      "stateMutability": "nonpayable",
      "type": "function"
    },
    {
      "inputs": [
        {
          "internalType": "address",
          "name": "owner",
          "type": "address"
        }
      ],
      "name": "balanceOf",
      "outputs": [
        {
          "internalType": "uint256",
          "name": "",
          "type": "uint256"
        }
      ],
      "stateMutability": "view",
      "type": "function"
    },
    {
      "inputs": [
        {
          "internalType": "uint256",
          "name": "tokenId",
          "type": "uint256"
        }
      ],
      "name": "getApproved",
      "outputs": [
        {
          "internalType": "address",
          "name": "",
          "type": "address"
        }
      ],
      "stateMutability": "view",
      "type": "function"
    },
    {
      "inputs": [
        {
          "internalType": "address",
          "name": "owner",
          "type": "address"
        },
        {
          "internalType": "address",
          "name": "operator",
          "type": "address"
        }
      ],
      "name": "isApprovedForAll",
      "outputs": [
        {
          "internalType": "bool",
          "name": "",
          "type": "bool"
        }
      ],
      "stateMutability": "view",
      "type": "function"
    },
    {
      "inputs": [
        {
          "internalType": "uint256",
          "name": "_tokenId",
          "type": "uint256"
        }
      ],
      "name": "metadata",
      "outputs": [
        {
          "components": [
            {
              "internalType": "string",
              "name": "title",
              "type": "string"
            },
            {
              "internalType": "string",
              "name": "message",
              "type": "string"
            },
            {
              "internalType": "string",
              "name": "location",
              "type": "string"
            },
            {
              "internalType": "uint256",
              "name": "timestamp",
              "type": "uint256"
            }
          ],
          "internalType": "struct GratitudeNFT.GratitudeData",
          "name": "",
          "type": "tuple"
        }
      ],
      "stateMutability": "view",
      "type": "function"
    },
    {
      "inputs": [
        {
          "internalType": "string",
          "name": "_title",
          "type": "string"
        },
        {
          "internalType": "string",
          "name": "_message",
          "type": "string"
        },
        {
          "internalType": "string",
          "name": "_location",
          "type": "string"
        }
      ],
      "name": "mint",
      "outputs": [],
      "stateMutability": "nonpayable",
      "type": "function"
    },
    {
      "inputs": [],
      "name": "name",
      "outputs": [
        {
          "internalType": "string",
          "name": "",
          "type": "string"
        }
      ],
      "stateMutability": "view",
      "type": "function"
    },
    {
      "inputs": [
        {
          "internalType": "uint256",
          "name": "tokenId",
          "type": "uint256"
        }
      ],
      "name": "ownerOf",
      "outputs": [
        {
          "internalType": "address",
          "name": "",
          "type": "address"
        }
      ],
      "stateMutability": "view",
      "type": "function"
    },
    {
      "inputs": [
        {
          "internalType": "address",
          "name": "from",
          "type": "address"
        },
        {
          "internalType": "address",
          "name": "to",
          "type": "address"
        },
        {
          "internalType": "uint256",
          "name": "tokenId",
          "type": "uint256"
        }
      ],
      "name": "safeTransferFrom",
      "outputs": [],
      "stateMutability": "nonpayable",
      "type": "function"
    },
    {
      "inputs": [
        {
          "internalType": "address",
          "name": "from",
          "type": "address"
        },
        {
          "internalType": "address",
          "name": "to",
          "type": "address"
        },
        {
          "internalType": "uint256",
          "name": "tokenId",
          "type": "uint256"
        },
        {
          "internalType": "bytes",
          "name": "_data",
          "type": "bytes"
        }
      ],
      "name": "safeTransferFrom",
      "outputs": [],
      "stateMutability": "nonpayable",
      "type": "function"
    },
    {
      "inputs": [
        {
          "internalType": "address",
          "name": "operator",
          "type": "address"
        },
        {
          "internalType": "bool",
          "name": "approved",
          "type": "bool"
        }
      ],
      "name": "setApprovalForAll",
      "outputs": [],
      "stateMutability": "nonpayable",
      "type": "function"
    },
    {
      "inputs": [
        {
          "internalType": "bytes4",
          "name": "interfaceId",
          "type": "bytes4"
        }
      ],
      "name": "supportsInterface",
      "outputs": [
        {
          "internalType": "bool",
          "name": "",
          "type": "bool"
        }
      ],
      "stateMutability": "view",
      "type": "function"
    },
    {
      "inputs": [],
      "name": "symbol",
      "outputs": [
        {
          "internalType": "string",
          "name": "",
          "type": "string"
        }
      ],
      "stateMutability": "view",
      "type": "function"
    },
    {
      "inputs": [
        {
          "internalType": "uint256",
          "name": "_tokenId",
          "type": "uint256"
        }
      ],
      "name": "tokenURI",
      "outputs": [
        {
          "internalType": "string",
          "name": "",
          "type": "string"
        }
      ],
      "stateMutability": "view",
      "type": "function"
    },
    {
      "inputs": [
        {
          "internalType": "address",
          "name": "from",
          "type": "address"
        },
        {
          "internalType": "address",
          "name": "to",
          "type": "address"
        },
        {
          "internalType": "uint256",
          "name": "tokenId",
          "type": "uint256"
        }
      ],
      "name": "transferFrom",
      "outputs": [],
      "stateMutability": "nonpayable",
      "type": "function"
    }
  ],
  "bytecode": "0x608060405260405180610160016040528061012f81526020016200340e61012f91396006908051906020019062000038929190620000ed565b503480156200004657600080fd5b506040518060400160405280600c81526020017f4772617469747564654e465400000000000000000000000000000000000000008152506040518060400160405280600981526020017f47726174697475646500000000000000000000000000000000000000000000008152508160009080519060200190620000cb929190620000ed565b508060019080519060200190620000e4929190620000ed565b50505062000202565b828054620000fb906200019d565b90600052602060002090601f0160209004810192826200011f57600085556200016b565b82601f106200013a57805160ff19168380011785556200016b565b828001600101855582156200016b579182015b828111156200016a5782518255916020019190600101906200014d565b5b5090506200017a91906200017e565b5090565b5b80821115620001995760008160009055506001016200017f565b5090565b60006002820490506001821680620001b657607f821691505b60208210811415620001cd57620001cc620001d3565b5b50919050565b7f4e487b7100000000000000000000000000000000000000000000000000000000600052602260045260246000fd5b6131fc80620002126000396000f3fe608060405234801561001057600080fd5b50600436106100f55760003560e01c806370a0823111610097578063c87b56dd11610066578063c87b56dd14610282578063d645ddf6146102b2578063e3684e39146102ce578063e985e9c5146102fe576100f5565b806370a08231146101fc57806395d89b411461022c578063a22cb4651461024a578063b88d4fde14610266576100f5565b8063095ea7b3116100d3578063095ea7b31461017857806323b872dd1461019457806342842e0e146101b05780636352211e146101cc576100f5565b806301ffc9a7146100fa57806306fdde031461012a578063081812fc14610148575b600080fd5b610114600480360381019061010f9190611e2a565b61032e565b6040516101219190612597565b60405180910390f35b610132610410565b60405161013f91906125b2565b60405180910390f35b610162600480360381019061015d9190611f13565b6104a2565b60405161016f91906124f2565b60405180910390f35b610192600480360381019061018d9190611dee565b610527565b005b6101ae60048036038101906101a99190611ce8565b61063f565b005b6101ca60048036038101906101c59190611ce8565b61069f565b005b6101e660048036038101906101e19190611f13565b6106bf565b6040516101f391906124f2565b60405180910390f35b61021660048036038101906102119190611c83565b610771565b60405161022391906127d6565b60405180910390f35b610234610829565b60405161024191906125b2565b60405180910390f35b610264600480360381019061025f9190611db2565b6108bb565b005b610280600480360381019061027b9190611d37565b6108d1565b005b61029c60048036038101906102979190611f13565b610933565b6040516102a991906125b2565b60405180910390f35b6102cc60048036038101906102c79190611e7c565b610a33565b005b6102e860048036038101906102e39190611f13565b610b34565b6040516102f591906127b4565b60405180910390f35b61031860048036038101906103139190611cac565b610d6c565b6040516103259190612597565b60405180910390f35b60007f80ac58cd000000000000000000000000000000000000000000000000000000007bffffffffffffffffffffffffffffffffffffffffffffffffffffffff1916827bffffffffffffffffffffffffffffffffffffffffffffffffffffffff191614806103f957507f5b5e139f000000000000000000000000000000000000000000000000000000007bffffffffffffffffffffffffffffffffffffffffffffffffffffffff1916827bffffffffffffffffffffffffffffffffffffffffffffffffffffffff1916145b80610409575061040882610e00565b5b9050919050565b60606000805461041f90612aac565b80601f016020809104026020016040519081016040528092919081815260200182805461044b90612aac565b80156104985780601f1061046d57610100808354040283529160200191610498565b820191906000526020600020905b81548152906001019060200180831161047b57829003601f168201915b5050505050905090565b60006104ad82610e6a565b6104ec576040517f08c379a00000000000000000000000000000000000000000000000000000000081526004016104e390612734565b60405180910390fd5b6004600083815260200190815260200160002060009054906101000a900473ffffffffffffffffffffffffffffffffffffffff169050919050565b6000610532826106bf565b90508073ffffffffffffffffffffffffffffffffffffffff168373ffffffffffffffffffffffffffffffffffffffff1614156105a3576040517f08c379a000000000000000000000000000000000000000000000000000000000815260040161059a90612774565b60405180910390fd5b8073ffffffffffffffffffffffffffffffffffffffff166105c2610ed6565b73ffffffffffffffffffffffffffffffffffffffff1614806105f157506105f0816105eb610ed6565b610d6c565b5b610630576040517f08c379a0000000000000000000000000000000000000000000000000000000008152600401610627906126b4565b60405180910390fd5b61063a8383610ede565b505050565b61065061064a610ed6565b82610f97565b61068f576040517f08c379a000000000000000000000000000000000000000000000000000000000815260040161068690612794565b60405180910390fd5b61069a838383611075565b505050565b6106ba838383604051806020016040528060008152506108d1565b505050565b6000806002600084815260200190815260200160002060009054906101000a900473ffffffffffffffffffffffffffffffffffffffff169050600073ffffffffffffffffffffffffffffffffffffffff168173ffffffffffffffffffffffffffffffffffffffff161415610768576040517f08c379a000000000000000000000000000000000000000000000000000000000815260040161075f906126f4565b60405180910390fd5b80915050919050565b60008073ffffffffffffffffffffffffffffffffffffffff168273ffffffffffffffffffffffffffffffffffffffff1614156107e2576040517f08c379a00000000000000000000000000000000000000000000000000000000081526004016107d9906126d4565b60405180910390fd5b600360008373ffffffffffffffffffffffffffffffffffffffff1673ffffffffffffffffffffffffffffffffffffffff168152602001908152602001600020549050919050565b60606001805461083890612aac565b80601f016020809104026020016040519081016040528092919081815260200182805461086490612aac565b80156108b15780601f10610886576101008083540402835291602001916108b1565b820191906000526020600020905b81548152906001019060200180831161089457829003601f168201915b5050505050905090565b6108cd6108c6610ed6565b83836112dc565b5050565b6108e26108dc610ed6565b83610f97565b610921576040517f08c379a000000000000000000000000000000000000000000000000000000000815260040161091890612794565b60405180910390fd5b61092d84848484611449565b50505050565b606061093e82610e6a565b61097d576040517f08c379a000000000000000000000000000000000000000000000000000000000815260040161097490612754565b60405180910390fd5b600060066040516020016109919190612446565b60405160208183030381529060405290506000610a0260086000868152602001908152602001600020600001600860008781526020019081526020016000206001016109dc856114a5565b6040516020016109ee93929190612473565b6040516020818303038152906040526114a5565b9050600081604051602001610a1791906124d0565b6040516020818303038152906040529050809350505050919050565b6000610a3f6007611644565b9050610a4b3382611652565b6000604051806080016040528086815260200185815260200184815260200142815250905080600860008481526020019081526020016000206000820151816000019080519060200190610aa0929190611a7f565b506020820151816001019080519060200190610abd929190611a7f565b506040820151816002019080519060200190610ada929190611a7f565b50606082015181600301559050507f0f7c6f88496f0458861c6cb12c8125e87ca2cbccc3766aff082036134f14588f338383604051610b1b93929190612559565b60405180910390a1610b2d6007611670565b5050505050565b610b3c611b05565b610b466007611644565b8210610b87576040517f08c379a0000000000000000000000000000000000000000000000000000000008152600401610b7e90612634565b60405180910390fd5b60086000838152602001908152602001600020604051806080016040529081600082018054610bb590612aac565b80601f0160208091040260200160405190810160405280929190818152602001828054610be190612aac565b8015610c2e5780601f10610c0357610100808354040283529160200191610c2e565b820191906000526020600020905b815481529060010190602001808311610c1157829003601f168201915b50505050508152602001600182018054610c4790612aac565b80601f0160208091040260200160405190810160405280929190818152602001828054610c7390612aac565b8015610cc05780601f10610c9557610100808354040283529160200191610cc0565b820191906000526020600020905b815481529060010190602001808311610ca357829003601f168201915b50505050508152602001600282018054610cd990612aac565b80601f0160208091040260200160405190810160405280929190818152602001828054610d0590612aac565b8015610d525780601f10610d2757610100808354040283529160200191610d52565b820191906000526020600020905b815481529060010190602001808311610d3557829003601f168201915b505050505081526020016003820154815250509050919050565b6000600560008473ffffffffffffffffffffffffffffffffffffffff1673ffffffffffffffffffffffffffffffffffffffff16815260200190815260200160002060008373ffffffffffffffffffffffffffffffffffffffff1673ffffffffffffffffffffffffffffffffffffffff16815260200190815260200160002060009054906101000a900460ff16905092915050565b60007f01ffc9a7000000000000000000000000000000000000000000000000000000007bffffffffffffffffffffffffffffffffffffffffffffffffffffffff1916827bffffffffffffffffffffffffffffffffffffffffffffffffffffffff1916149050919050565b60008073ffffffffffffffffffffffffffffffffffffffff166002600084815260200190815260200160002060009054906101000a900473ffffffffffffffffffffffffffffffffffffffff1673ffffffffffffffffffffffffffffffffffffffff1614159050919050565b600033905090565b816004600083815260200190815260200160002060006101000a81548173ffffffffffffffffffffffffffffffffffffffff021916908373ffffffffffffffffffffffffffffffffffffffff160217905550808273ffffffffffffffffffffffffffffffffffffffff16610f51836106bf565b73ffffffffffffffffffffffffffffffffffffffff167f8c5be1e5ebec7d5bd14f71427d1e84f3dd0314c0f7b2291e5b200ac8c7c3b92560405160405180910390a45050565b6000610fa282610e6a565b610fe1576040517f08c379a0000000000000000000000000000000000000000000000000000000008152600401610fd890612694565b60405180910390fd5b6000610fec836106bf565b90508073ffffffffffffffffffffffffffffffffffffffff168473ffffffffffffffffffffffffffffffffffffffff16148061105b57508373ffffffffffffffffffffffffffffffffffffffff16611043846104a2565b73ffffffffffffffffffffffffffffffffffffffff16145b8061106c575061106b8185610d6c565b5b91505092915050565b8273ffffffffffffffffffffffffffffffffffffffff16611095826106bf565b73ffffffffffffffffffffffffffffffffffffffff16146110eb576040517f08c379a00000000000000000000000000000000000000000000000000000000081526004016110e2906125f4565b60405180910390fd5b600073ffffffffffffffffffffffffffffffffffffffff168273ffffffffffffffffffffffffffffffffffffffff16141561115b576040517f08c379a000000000000000000000000000000000000000000000000000000000815260040161115290612654565b60405180910390fd5b611166838383611686565b611171600082610ede565b6001600360008573ffffffffffffffffffffffffffffffffffffffff1673ffffffffffffffffffffffffffffffffffffffff16815260200190815260200160002060008282546111c191906129c2565b925050819055506001600360008473ffffffffffffffffffffffffffffffffffffffff1673ffffffffffffffffffffffffffffffffffffffff168152602001908152602001600020600082825461121891906128e1565b92505081905550816002600083815260200190815260200160002060006101000a81548173ffffffffffffffffffffffffffffffffffffffff021916908373ffffffffffffffffffffffffffffffffffffffff160217905550808273ffffffffffffffffffffffffffffffffffffffff168473ffffffffffffffffffffffffffffffffffffffff167fddf252ad1be2c89b69c2b068fc378daa952ba7f163c4a11628f55a4df523b3ef60405160405180910390a46112d783838361168b565b505050565b8173ffffffffffffffffffffffffffffffffffffffff168373ffffffffffffffffffffffffffffffffffffffff16141561134b576040517f08c379a000000000000000000000000000000000000000000000000000000000815260040161134290612674565b60405180910390fd5b80600560008573ffffffffffffffffffffffffffffffffffffffff1673ffffffffffffffffffffffffffffffffffffffff16815260200190815260200160002060008473ffffffffffffffffffffffffffffffffffffffff1673ffffffffffffffffffffffffffffffffffffffff16815260200190815260200160002060006101000a81548160ff0219169083151502179055508173ffffffffffffffffffffffffffffffffffffffff168373ffffffffffffffffffffffffffffffffffffffff167f17307eab39ab6107e8899845ad3d59bd9653f200f220920489ca2b5937696c318360405161143c9190612597565b60405180910390a3505050565b611454848484611075565b61146084848484611690565b61149f576040517f08c379a0000000000000000000000000000000000000000000000000000000008152600401611496906125d4565b60405180910390fd5b50505050565b60606000825114156114c85760405180602001604052806000815250905061163f565b600060405180606001604052806040815260200161318760409139905060006003600285516114f791906128e1565b6115019190612937565b600461150d9190612968565b9050600060208261151e91906128e1565b67ffffffffffffffff81111561155d577f4e487b7100000000000000000000000000000000000000000000000000000000600052604160045260246000fd5b6040519080825280601f01601f19166020018201604052801561158f5781602001600182028036833780820191505090505b509050818152600183018586518101602084015b818310156115fe576003830192508251603f8160121c168501518253600182019150603f81600c1c168501518253600182019150603f8160061c168501518253600182019150603f81168501518253600182019150506115a3565b600389510660018114611618576002811461162857611633565b613d3d60f01b6002830352611633565b603d60f81b60018303525b50505050508093505050505b919050565b600081600001549050919050565b61166c828260405180602001604052806000815250611827565b5050565b6001816000016000828254019250508190555050565b505050565b505050565b60006116b18473ffffffffffffffffffffffffffffffffffffffff16611882565b1561181a578373ffffffffffffffffffffffffffffffffffffffff1663150b7a026116da610ed6565b8786866040518563ffffffff1660e01b81526004016116fc949392919061250d565b602060405180830381600087803b15801561171657600080fd5b505af192505050801561174757506040513d601f19601f820116820180604052508101906117449190611e53565b60015b6117ca573d8060008114611777576040519150601f19603f3d011682016040523d82523d6000602084013e61177c565b606091505b506000815114156117c2576040517f08c379a00000000000000000000000000000000000000000000000000000000081526004016117b9906125d4565b60405180910390fd5b805181602001fd5b63150b7a0260e01b7bffffffffffffffffffffffffffffffffffffffffffffffffffffffff1916817bffffffffffffffffffffffffffffffffffffffffffffffffffffffff19161491505061181f565b600190505b949350505050565b61183183836118a5565b61183e6000848484611690565b61187d576040517f08c379a0000000000000000000000000000000000000000000000000000000008152600401611874906125d4565b60405180910390fd5b505050565b6000808273ffffffffffffffffffffffffffffffffffffffff163b119050919050565b600073ffffffffffffffffffffffffffffffffffffffff168273ffffffffffffffffffffffffffffffffffffffff161415611915576040517f08c379a000000000000000000000000000000000000000000000000000000000815260040161190c90612714565b60405180910390fd5b61191e81610e6a565b1561195e576040517f08c379a000000000000000000000000000000000000000000000000000000000815260040161195590612614565b60405180910390fd5b61196a60008383611686565b6001600360008473ffffffffffffffffffffffffffffffffffffffff1673ffffffffffffffffffffffffffffffffffffffff16815260200190815260200160002060008282546119ba91906128e1565b92505081905550816002600083815260200190815260200160002060006101000a81548173ffffffffffffffffffffffffffffffffffffffff021916908373ffffffffffffffffffffffffffffffffffffffff160217905550808273ffffffffffffffffffffffffffffffffffffffff16600073ffffffffffffffffffffffffffffffffffffffff167fddf252ad1be2c89b69c2b068fc378daa952ba7f163c4a11628f55a4df523b3ef60405160405180910390a4611a7b6000838361168b565b5050565b828054611a8b90612aac565b90600052602060002090601f016020900481019282611aad5760008555611af4565b82601f10611ac657805160ff1916838001178555611af4565b82800160010185558215611af4579182015b82811115611af3578251825591602001919060010190611ad8565b5b509050611b019190611b2d565b5090565b6040518060800160405280606081526020016060815260200160608152602001600081525090565b5b80821115611b46576000816000905550600101611b2e565b5090565b6000611b5d611b5884612816565b6127f1565b905082815260208101848484011115611b7557600080fd5b611b80848285612a6a565b509392505050565b6000611b9b611b9684612847565b6127f1565b905082815260208101848484011115611bb357600080fd5b611bbe848285612a6a565b509392505050565b600081359050611bd58161312a565b92915050565b600081359050611bea81613141565b92915050565b600081359050611bff81613158565b92915050565b600081519050611c1481613158565b92915050565b600082601f830112611c2b57600080fd5b8135611c3b848260208601611b4a565b91505092915050565b600082601f830112611c5557600080fd5b8135611c65848260208601611b88565b91505092915050565b600081359050611c7d8161316f565b92915050565b600060208284031215611c9557600080fd5b6000611ca384828501611bc6565b91505092915050565b60008060408385031215611cbf57600080fd5b6000611ccd85828601611bc6565b9250506020611cde85828601611bc6565b9150509250929050565b600080600060608486031215611cfd57600080fd5b6000611d0b86828701611bc6565b9350506020611d1c86828701611bc6565b9250506040611d2d86828701611c6e565b9150509250925092565b60008060008060808587031215611d4d57600080fd5b6000611d5b87828801611bc6565b9450506020611d6c87828801611bc6565b9350506040611d7d87828801611c6e565b925050606085013567ffffffffffffffff811115611d9a57600080fd5b611da687828801611c1a565b91505092959194509250565b60008060408385031215611dc557600080fd5b6000611dd385828601611bc6565b9250506020611de485828601611bdb565b9150509250929050565b60008060408385031215611e0157600080fd5b6000611e0f85828601611bc6565b9250506020611e2085828601611c6e565b9150509250929050565b600060208284031215611e3c57600080fd5b6000611e4a84828501611bf0565b91505092915050565b600060208284031215611e6557600080fd5b6000611e7384828501611c05565b91505092915050565b600080600060608486031215611e9157600080fd5b600084013567ffffffffffffffff811115611eab57600080fd5b611eb786828701611c44565b935050602084013567ffffffffffffffff811115611ed457600080fd5b611ee086828701611c44565b925050604084013567ffffffffffffffff811115611efd57600080fd5b611f0986828701611c44565b9150509250925092565b600060208284031215611f2557600080fd5b6000611f3384828501611c6e565b91505092915050565b611f45816129f6565b82525050565b611f5481612a08565b82525050565b6000611f658261288d565b611f6f81856128a3565b9350611f7f818560208601612a79565b611f8881612bcb565b840191505092915050565b6000611f9e82612898565b611fa881856128b4565b9350611fb8818560208601612a79565b611fc181612bcb565b840191505092915050565b6000611fd782612898565b611fe181856128c5565b9350611ff1818560208601612a79565b611ffa81612bcb565b840191505092915050565b600061201082612898565b61201a81856128d6565b935061202a818560208601612a79565b80840191505092915050565b6000815461204381612aac565b61204d81866128d6565b945060018216600081146120685760018114612079576120ac565b60ff198316865281860193506120ac565b61208285612878565b60005b838110156120a457815481890152600182019150602081019050612085565b838801955050505b50505092915050565b60006120c26013836128d6565b91506120cd82612bdc565b601382019050919050565b60006120e56032836128c5565b91506120f082612c05565b604082019050919050565b60006121086025836128c5565b915061211382612c54565b604082019050919050565b600061212b601c836128c5565b915061213682612ca3565b602082019050919050565b600061214e6011836128c5565b915061215982612ccc565b602082019050919050565b60006121716024836128c5565b915061217c82612cf5565b604082019050919050565b60006121946019836128c5565b915061219f82612d44565b602082019050919050565b60006121b7602c836128c5565b91506121c282612d6d565b604082019050919050565b60006121da600d836128d6565b91506121e582612dbc565b600d82019050919050565b60006121fd6038836128c5565b915061220882612de5565b604082019050919050565b6000612220602a836128c5565b915061222b82612e34565b604082019050919050565b60006122436029836128c5565b915061224e82612e83565b604082019050919050565b60006122666002836128d6565b915061227182612ed2565b600282019050919050565b60006122896020836128c5565b915061229482612efb565b602082019050919050565b60006122ac602c836128c5565b91506122b782612f24565b604082019050919050565b60006122cf602f836128c5565b91506122da82612f73565b604082019050919050565b60006122f26027836128d6565b91506122fd82612fc2565b602782019050919050565b6000612315600a836128d6565b915061232082613011565b600a82019050919050565b60006123386021836128c5565b91506123438261303a565b604082019050919050565b600061235b601d836128d6565b915061236682613089565b601d82019050919050565b600061237e6031836128c5565b9150612389826130b2565b604082019050919050565b60006123a1600c836128d6565b91506123ac82613101565b600c82019050919050565b600060808301600083015184820360008601526123d48282611f93565b915050602083015184820360208601526123ee8282611f93565b915050604083015184820360408601526124088282611f93565b915050606083015161241d6060860182612428565b508091505092915050565b61243181612a60565b82525050565b61244081612a60565b82525050565b60006124528284612036565b915061245d82612394565b9150612468826121cd565b915081905092915050565b600061247e82612308565b915061248a8286612036565b9150612495826120b5565b91506124a18285612036565b91506124ac826122e5565b91506124b88284612005565b91506124c382612259565b9150819050949350505050565b60006124db8261234e565b91506124e78284612005565b915081905092915050565b60006020820190506125076000830184611f3c565b92915050565b60006080820190506125226000830187611f3c565b61252f6020830186611f3c565b61253c6040830185612437565b818103606083015261254e8184611f5a565b905095945050505050565b600060608201905061256e6000830186611f3c565b61257b6020830185612437565b818103604083015261258d81846123b7565b9050949350505050565b60006020820190506125ac6000830184611f4b565b92915050565b600060208201905081810360008301526125cc8184611fcc565b905092915050565b600060208201905081810360008301526125ed816120d8565b9050919050565b6000602082019050818103600083015261260d816120fb565b9050919050565b6000602082019050818103600083015261262d8161211e565b9050919050565b6000602082019050818103600083015261264d81612141565b9050919050565b6000602082019050818103600083015261266d81612164565b9050919050565b6000602082019050818103600083015261268d81612187565b9050919050565b600060208201905081810360008301526126ad816121aa565b9050919050565b600060208201905081810360008301526126cd816121f0565b9050919050565b600060208201905081810360008301526126ed81612213565b9050919050565b6000602082019050818103600083015261270d81612236565b9050919050565b6000602082019050818103600083015261272d8161227c565b9050919050565b6000602082019050818103600083015261274d8161229f565b9050919050565b6000602082019050818103600083015261276d816122c2565b9050919050565b6000602082019050818103600083015261278d8161232b565b9050919050565b600060208201905081810360008301526127ad81612371565b9050919050565b600060208201905081810360008301526127ce81846123b7565b905092915050565b60006020820190506127eb6000830184612437565b92915050565b60006127fb61280c565b90506128078282612ade565b919050565b6000604051905090565b600067ffffffffffffffff82111561283157612830612b9c565b5b61283a82612bcb565b9050602081019050919050565b600067ffffffffffffffff82111561286257612861612b9c565b5b61286b82612bcb565b9050602081019050919050565b60008190508160005260206000209050919050565b600081519050919050565b600081519050919050565b600082825260208201905092915050565b600082825260208201905092915050565b600082825260208201905092915050565b600081905092915050565b60006128ec82612a60565b91506128f783612a60565b9250827fffffffffffffffffffffffffffffffffffffffffffffffffffffffffffffffff0382111561292c5761292b612b0f565b5b828201905092915050565b600061294282612a60565b915061294d83612a60565b92508261295d5761295c612b3e565b5b828204905092915050565b600061297382612a60565b915061297e83612a60565b9250817fffffffffffffffffffffffffffffffffffffffffffffffffffffffffffffffff04831182151516156129b7576129b6612b0f565b5b828202905092915050565b60006129cd82612a60565b91506129d883612a60565b9250828210156129eb576129ea612b0f565b5b828203905092915050565b6000612a0182612a40565b9050919050565b60008115159050919050565b60007fffffffff0000000000000000000000000000000000000000000000000000000082169050919050565b600073ffffffffffffffffffffffffffffffffffffffff82169050919050565b6000819050919050565b82818337600083830152505050565b60005b83811015612a97578082015181840152602081019050612a7c565b83811115612aa6576000848401525b50505050565b60006002820490506001821680612ac457607f821691505b60208210811415612ad857612ad7612b6d565b5b50919050565b612ae782612bcb565b810181811067ffffffffffffffff82111715612b0657612b05612b9c565b5b80604052505050565b7f4e487b7100000000000000000000000000000000000000000000000000000000600052601160045260246000fd5b7f4e487b7100000000000000000000000000000000000000000000000000000000600052601260045260246000fd5b7f4e487b7100000000000000000000000000000000000000000000000000000000600052602260045260246000fd5b7f4e487b7100000000000000000000000000000000000000000000000000000000600052604160045260246000fd5b6000601f19601f8301169050919050565b7f222c20226465736372697074696f6e223a202200000000000000000000000000600082015250565b7f4552433732313a207472616e7366657220746f206e6f6e20455243373231526560008201527f63656976657220696d706c656d656e7465720000000000000000000000000000602082015250565b7f4552433732313a207472616e736665722066726f6d20696e636f72726563742060008201527f6f776e6572000000000000000000000000000000000000000000000000000000602082015250565b7f4552433732313a20746f6b656e20616c7265616479206d696e74656400000000600082015250565b7f496e76616c696420746f6b656e2049642e000000000000000000000000000000600082015250565b7f4552433732313a207472616e7366657220746f20746865207a65726f2061646460008201527f7265737300000000000000000000000000000000000000000000000000000000602082015250565b7f4552433732313a20617070726f766520746f2063616c6c657200000000000000600082015250565b7f4552433732313a206f70657261746f7220717565727920666f72206e6f6e657860008201527f697374656e7420746f6b656e0000000000000000000000000000000000000000602082015250565b7f3c2f746578743e3c2f7376673e00000000000000000000000000000000000000600082015250565b7f4552433732313a20617070726f76652063616c6c6572206973206e6f74206f7760008201527f6e6572206e6f7220617070726f76656420666f7220616c6c0000000000000000602082015250565b7f4552433732313a2062616c616e636520717565727920666f7220746865207a6560008201527f726f206164647265737300000000000000000000000000000000000000000000602082015250565b7f4552433732313a206f776e657220717565727920666f72206e6f6e657869737460008201527f656e7420746f6b656e0000000000000000000000000000000000000000000000602082015250565b7f227d000000000000000000000000000000000000000000000000000000000000600082015250565b7f4552433732313a206d696e7420746f20746865207a65726f2061646472657373600082015250565b7f4552433732313a20617070726f76656420717565727920666f72206e6f6e657860008201527f697374656e7420746f6b656e0000000000000000000000000000000000000000602082015250565b7f4552433732314d657461646174613a2055524920717565727920666f72206e6f60008201527f6e6578697374656e7420746f6b656e0000000000000000000000000000000000602082015250565b7f222c2022696d616765223a2022646174613a696d6167652f7376672b786d6c3b60008201527f6261736536342c00000000000000000000000000000000000000000000000000602082015250565b7f7b226e616d65223a202200000000000000000000000000000000000000000000600082015250565b7f4552433732313a20617070726f76616c20746f2063757272656e74206f776e6560008201527f7200000000000000000000000000000000000000000000000000000000000000602082015250565b7f646174613a6170706c69636174696f6e2f6a736f6e3b6261736536342c000000600082015250565b7f4552433732313a207472616e736665722063616c6c6572206973206e6f74206f60008201527f776e6572206e6f7220617070726f766564000000000000000000000000000000602082015250565b7f4772617469747564654e46540000000000000000000000000000000000000000600082015250565b613133816129f6565b811461313e57600080fd5b50565b61314a81612a08565b811461315557600080fd5b50565b61316181612a14565b811461316c57600080fd5b50565b61317881612a60565b811461318357600080fd5b5056fe4142434445464748494a4b4c4d4e4f505152535455565758595a6162636465666768696a6b6c6d6e6f707172737475767778797a303132333435363738392b2fa2646970667358221220f66d957900359653863487472e393b54edbbb7df6ef9ca3645712666ac9e8ebe64736f6c634300080400333c73766720786d6c6e733d27687474703a2f2f7777772e77332e6f72672f323030302f73766727207072657365727665417370656374526174696f3d27784d696e594d696e206d656574272076696577426f783d273020302033353020333530273e3c7374796c653e2e62617365207b2066696c6c3a2077686974653b20666f6e742d66616d696c793a2073657269663b20666f6e742d73697a653a20323470783b207d3c2f7374796c653e3c726563742077696474683d273130302527206865696768743d2731303025272066696c6c3d27626c61636b27202f3e3c7465787420783d273530252720793d273530252720636c6173733d27626173652720646f6d696e616e742d626173656c696e653d276d6964646c652720746578742d616e63686f723d276d6964646c65273e",
  "linkReferences": {},
  "deployedLinkReferences": {}
}