{
  "_format": "hh-sol-artifact-1",
  "contractName": "GratitudeNFT",
  "sourceName": "contracts/GratitudeNFT.sol",
  "abi": [
    {
      "inputs": [],
      "stateMutability": "nonpayable",
      "type": "constructor"
    },
    {
      "anonymous": false,
      "inputs": [
        {
          "indexed": true,
          "internalType": "address",
          "name": "owner",
          "type": "address"
        },
        {
          "indexed": true,
          "internalType": "address",
          "name": "approved",
          "type": "address"
        },
        {
          "indexed": true,
          "internalType": "uint256",
          "name": "tokenId",
          "type": "uint256"
        }
      ],
      "name": "Approval",
      "type": "event"
    },
    {
      "anonymous": false,
      "inputs": [
        {
          "indexed": true,
          "internalType": "address",
          "name": "owner",
          "type": "address"
        },
        {
          "indexed": true,
          "internalType": "address",
          "name": "operator",
          "type": "address"
        },
        {
          "indexed": false,
          "internalType": "bool",
          "name": "approved",
          "type": "bool"
        }
      ],
      "name": "ApprovalForAll",
      "type": "event"
    },
    {
      "anonymous": false,
      "inputs": [
        {
          "indexed": false,
          "internalType": "address",
          "name": "sender",
          "type": "address"
        },
        {
          "indexed": false,
          "internalType": "uint256",
          "name": "tokenId",
          "type": "uint256"
        },
        {
          "components": [
            {
              "internalType": "string",
              "name": "title",
              "type": "string"
            },
            {
              "internalType": "string",
              "name": "message",
              "type": "string"
            },
            {
              "internalType": "string",
              "name": "location",
              "type": "string"
            },
            {
              "internalType": "uint256",
              "name": "timestamp",
              "type": "uint256"
            }
          ],
          "indexed": false,
          "internalType": "struct GratitudeNFT.GratitudeData",
          "name": "tokenData",
          "type": "tuple"
        }
      ],
      "name": "NewGratitudeMinted",
      "type": "event"
    },
    {
      "anonymous": false,
      "inputs": [
        {
          "indexed": true,
          "internalType": "address",
          "name": "from",
          "type": "address"
        },
        {
          "indexed": true,
          "internalType": "address",
          "name": "to",
          "type": "address"
        },
        {
          "indexed": true,
          "internalType": "uint256",
          "name": "tokenId",
          "type": "uint256"
        }
      ],
      "name": "Transfer",
      "type": "event"
    },
    {
      "inputs": [
        {
          "internalType": "address",
          "name": "to",
          "type": "address"
        },
        {
          "internalType": "uint256",
          "name": "tokenId",
          "type": "uint256"
        }
      ],
      "name": "approve",
      "outputs": [],
      "stateMutability": "nonpayable",
      "type": "function"
    },
    {
      "inputs": [
        {
          "internalType": "address",
          "name": "owner",
          "type": "address"
        }
      ],
      "name": "balanceOf",
      "outputs": [
        {
          "internalType": "uint256",
          "name": "",
          "type": "uint256"
        }
      ],
      "stateMutability": "view",
      "type": "function"
    },
    {
      "inputs": [],
      "name": "currentTokenId",
      "outputs": [
        {
          "internalType": "string",
          "name": "",
          "type": "string"
        }
      ],
      "stateMutability": "view",
      "type": "function"
    },
    {
      "inputs": [
        {
          "internalType": "uint256",
          "name": "tokenId",
          "type": "uint256"
        }
      ],
      "name": "getApproved",
      "outputs": [
        {
          "internalType": "address",
          "name": "",
          "type": "address"
        }
      ],
      "stateMutability": "view",
      "type": "function"
    },
    {
      "inputs": [
        {
          "internalType": "address",
          "name": "owner",
          "type": "address"
        },
        {
          "internalType": "address",
          "name": "operator",
          "type": "address"
        }
      ],
      "name": "isApprovedForAll",
      "outputs": [
        {
          "internalType": "bool",
          "name": "",
          "type": "bool"
        }
      ],
      "stateMutability": "view",
      "type": "function"
    },
    {
      "inputs": [
        {
          "internalType": "string",
          "name": "_title",
          "type": "string"
        },
        {
          "internalType": "string",
          "name": "_message",
          "type": "string"
        },
        {
          "internalType": "string",
          "name": "_location",
          "type": "string"
        }
      ],
      "name": "mint",
      "outputs": [],
      "stateMutability": "nonpayable",
      "type": "function"
    },
    {
      "inputs": [],
      "name": "name",
      "outputs": [
        {
          "internalType": "string",
          "name": "",
          "type": "string"
        }
      ],
      "stateMutability": "view",
      "type": "function"
    },
    {
      "inputs": [
        {
          "internalType": "uint256",
          "name": "tokenId",
          "type": "uint256"
        }
      ],
      "name": "ownerOf",
      "outputs": [
        {
          "internalType": "address",
          "name": "",
          "type": "address"
        }
      ],
      "stateMutability": "view",
      "type": "function"
    },
    {
      "inputs": [
        {
          "internalType": "address",
          "name": "from",
          "type": "address"
        },
        {
          "internalType": "address",
          "name": "to",
          "type": "address"
        },
        {
          "internalType": "uint256",
          "name": "tokenId",
          "type": "uint256"
        }
      ],
      "name": "safeTransferFrom",
      "outputs": [],
      "stateMutability": "nonpayable",
      "type": "function"
    },
    {
      "inputs": [
        {
          "internalType": "address",
          "name": "from",
          "type": "address"
        },
        {
          "internalType": "address",
          "name": "to",
          "type": "address"
        },
        {
          "internalType": "uint256",
          "name": "tokenId",
          "type": "uint256"
        },
        {
          "internalType": "bytes",
          "name": "_data",
          "type": "bytes"
        }
      ],
      "name": "safeTransferFrom",
      "outputs": [],
      "stateMutability": "nonpayable",
      "type": "function"
    },
    {
      "inputs": [
        {
          "internalType": "address",
          "name": "operator",
          "type": "address"
        },
        {
          "internalType": "bool",
          "name": "approved",
          "type": "bool"
        }
      ],
      "name": "setApprovalForAll",
      "outputs": [],
      "stateMutability": "nonpayable",
      "type": "function"
    },
    {
      "inputs": [
        {
          "internalType": "bytes4",
          "name": "interfaceId",
          "type": "bytes4"
        }
      ],
      "name": "supportsInterface",
      "outputs": [
        {
          "internalType": "bool",
          "name": "",
          "type": "bool"
        }
      ],
      "stateMutability": "view",
      "type": "function"
    },
    {
      "inputs": [],
      "name": "symbol",
      "outputs": [
        {
          "internalType": "string",
          "name": "",
          "type": "string"
        }
      ],
      "stateMutability": "view",
      "type": "function"
    },
    {
      "inputs": [
        {
          "internalType": "uint256",
          "name": "_tokenId",
          "type": "uint256"
        }
      ],
      "name": "tokenURI",
      "outputs": [
        {
          "internalType": "string",
          "name": "",
          "type": "string"
        }
      ],
      "stateMutability": "view",
      "type": "function"
    },
    {
      "inputs": [
        {
          "internalType": "address",
          "name": "from",
          "type": "address"
        },
        {
          "internalType": "address",
          "name": "to",
          "type": "address"
        },
        {
          "internalType": "uint256",
          "name": "tokenId",
          "type": "uint256"
        }
      ],
      "name": "transferFrom",
      "outputs": [],
      "stateMutability": "nonpayable",
      "type": "function"
    }
  ],
  "bytecode": "0x608060405260405180610160016040528061012f8152602001620033ff61012f91396006908051906020019062000038929190620000ed565b503480156200004657600080fd5b506040518060400160405280600c81526020017f4772617469747564654e465400000000000000000000000000000000000000008152506040518060400160405280600981526020017f47726174697475646500000000000000000000000000000000000000000000008152508160009080519060200190620000cb929190620000ed565b508060019080519060200190620000e4929190620000ed565b50505062000202565b828054620000fb906200019d565b90600052602060002090601f0160209004810192826200011f57600085556200016b565b82601f106200013a57805160ff19168380011785556200016b565b828001600101855582156200016b579182015b828111156200016a5782518255916020019190600101906200014d565b5b5090506200017a91906200017e565b5090565b5b80821115620001995760008160009055506001016200017f565b5090565b60006002820490506001821680620001b657607f821691505b60208210811415620001cd57620001cc620001d3565b5b50919050565b7f4e487b7100000000000000000000000000000000000000000000000000000000600052602260045260246000fd5b6131ed80620002126000396000f3fe608060405234801561001057600080fd5b50600436106100f45760003560e01c80636352211e11610097578063b88d4fde11610066578063b88d4fde14610283578063c87b56dd1461029f578063d645ddf6146102cf578063e985e9c5146102eb576100f4565b80636352211e146101e957806370a082311461021957806395d89b4114610249578063a22cb46514610267576100f4565b8063081812fc116100d3578063081812fc14610165578063095ea7b31461019557806323b872dd146101b157806342842e0e146101cd576100f4565b80629a9b7b146100f957806301ffc9a71461011757806306fdde0314610147575b600080fd5b61010161031b565b60405161010e91906125bd565b60405180910390f35b610131600480360381019061012c9190611e79565b610334565b60405161013e91906125a2565b60405180910390f35b61014f610416565b60405161015c91906125bd565b60405180910390f35b61017f600480360381019061017a9190611f62565b6104a8565b60405161018c91906124fd565b60405180910390f35b6101af60048036038101906101aa9190611e3d565b61052d565b005b6101cb60048036038101906101c69190611d37565b610645565b005b6101e760048036038101906101e29190611d37565b6106a5565b005b61020360048036038101906101fe9190611f62565b6106c5565b60405161021091906124fd565b60405180910390f35b610233600480360381019061022e9190611cd2565b610777565b604051610240919061279f565b60405180910390f35b61025161082f565b60405161025e91906125bd565b60405180910390f35b610281600480360381019061027c9190611e01565b6108c1565b005b61029d60048036038101906102989190611d86565b6108d7565b005b6102b960048036038101906102b49190611f62565b610939565b6040516102c691906125bd565b60405180910390f35b6102e960048036038101906102e49190611ecb565b610a43565b005b61030560048036038101906103009190611cfb565b610b44565b60405161031291906125a2565b60405180910390f35b606061032f61032a6007610bd8565b610be6565b905090565b60007f80ac58cd000000000000000000000000000000000000000000000000000000007bffffffffffffffffffffffffffffffffffffffffffffffffffffffff1916827bffffffffffffffffffffffffffffffffffffffffffffffffffffffff191614806103ff57507f5b5e139f000000000000000000000000000000000000000000000000000000007bffffffffffffffffffffffffffffffffffffffffffffffffffffffff1916827bffffffffffffffffffffffffffffffffffffffffffffffffffffffff1916145b8061040f575061040e82610e85565b5b9050919050565b60606000805461042590612a75565b80601f016020809104026020016040519081016040528092919081815260200182805461045190612a75565b801561049e5780601f106104735761010080835404028352916020019161049e565b820191906000526020600020905b81548152906001019060200180831161048157829003601f168201915b5050505050905090565b60006104b382610eef565b6104f2576040517f08c379a00000000000000000000000000000000000000000000000000000000081526004016104e99061271f565b60405180910390fd5b6004600083815260200190815260200160002060009054906101000a900473ffffffffffffffffffffffffffffffffffffffff169050919050565b6000610538826106c5565b90508073ffffffffffffffffffffffffffffffffffffffff168373ffffffffffffffffffffffffffffffffffffffff1614156105a9576040517f08c379a00000000000000000000000000000000000000000000000000000000081526004016105a09061275f565b60405180910390fd5b8073ffffffffffffffffffffffffffffffffffffffff166105c8610f5b565b73ffffffffffffffffffffffffffffffffffffffff1614806105f757506105f6816105f1610f5b565b610b44565b5b610636576040517f08c379a000000000000000000000000000000000000000000000000000000000815260040161062d9061269f565b60405180910390fd5b6106408383610f63565b505050565b610656610650610f5b565b8261101c565b610695576040517f08c379a000000000000000000000000000000000000000000000000000000000815260040161068c9061277f565b60405180910390fd5b6106a08383836110fa565b505050565b6106c0838383604051806020016040528060008152506108d7565b505050565b6000806002600084815260200190815260200160002060009054906101000a900473ffffffffffffffffffffffffffffffffffffffff169050600073ffffffffffffffffffffffffffffffffffffffff168173ffffffffffffffffffffffffffffffffffffffff16141561076e576040517f08c379a0000000000000000000000000000000000000000000000000000000008152600401610765906126df565b60405180910390fd5b80915050919050565b60008073ffffffffffffffffffffffffffffffffffffffff168273ffffffffffffffffffffffffffffffffffffffff1614156107e8576040517f08c379a00000000000000000000000000000000000000000000000000000000081526004016107df906126bf565b60405180910390fd5b600360008373ffffffffffffffffffffffffffffffffffffffff1673ffffffffffffffffffffffffffffffffffffffff168152602001908152602001600020549050919050565b60606001805461083e90612a75565b80601f016020809104026020016040519081016040528092919081815260200182805461086a90612a75565b80156108b75780601f1061088c576101008083540402835291602001916108b7565b820191906000526020600020905b81548152906001019060200180831161089a57829003601f168201915b5050505050905090565b6108d36108cc610f5b565b8383611361565b5050565b6108e86108e2610f5b565b8361101c565b610927576040517f08c379a000000000000000000000000000000000000000000000000000000000815260040161091e9061277f565b60405180910390fd5b610933848484846114ce565b50505050565b606061094482610eef565b610983576040517f08c379a000000000000000000000000000000000000000000000000000000000815260040161097a9061273f565b60405180910390fd5b6000600661099084610be6565b6040516020016109a192919061244f565b60405160208183030381529060405290506000610a1260086000868152602001908152602001600020600001600860008781526020019081526020016000206001016109ec8561152a565b6040516020016109fe9392919061247e565b60405160208183030381529060405261152a565b9050600081604051602001610a2791906124db565b6040516020818303038152906040529050809350505050919050565b6000610a4f6007610bd8565b9050610a5b33826116c9565b6000604051806080016040528086815260200185815260200184815260200142815250905080600860008481526020019081526020016000206000820151816000019080519060200190610ab0929190611af6565b506020820151816001019080519060200190610acd929190611af6565b506040820151816002019080519060200190610aea929190611af6565b50606082015181600301559050507f0f7c6f88496f0458861c6cb12c8125e87ca2cbccc3766aff082036134f14588f338383604051610b2b93929190612564565b60405180910390a1610b3d60076116e7565b5050505050565b6000600560008473ffffffffffffffffffffffffffffffffffffffff1673ffffffffffffffffffffffffffffffffffffffff16815260200190815260200160002060008373ffffffffffffffffffffffffffffffffffffffff1673ffffffffffffffffffffffffffffffffffffffff16815260200190815260200160002060009054906101000a900460ff16905092915050565b600081600001549050919050565b606060006064905060008167ffffffffffffffff811115610c30577f4e487b7100000000000000000000000000000000000000000000000000000000600052604160045260246000fd5b6040519080825280601f01601f191660200182016040528015610c625781602001600182028036833780820191505090505b50905060005b60008514610d1a576000600a86610c7f9190612b21565b9050600a86610c8e9190612900565b9550806030610c9d91906128aa565b60f81b838380610cac90612ad8565b945081518110610ce5577f4e487b7100000000000000000000000000000000000000000000000000000000600052603260045260246000fd5b60200101907effffffffffffffffffffffffffffffffffffffffffffffffffffffffffffff1916908160001a90535050610c68565b60008167ffffffffffffffff811115610d5c577f4e487b7100000000000000000000000000000000000000000000000000000000600052604160045260246000fd5b6040519080825280601f01601f191660200182016040528015610d8e5781602001600182028036833780820191505090505b50905060005b82811015610e72578360018285610dab919061298b565b610db5919061298b565b81518110610dec577f4e487b7100000000000000000000000000000000000000000000000000000000600052603260045260246000fd5b602001015160f81c60f81b828281518110610e30577f4e487b7100000000000000000000000000000000000000000000000000000000600052603260045260246000fd5b60200101907effffffffffffffffffffffffffffffffffffffffffffffffffffffffffffff1916908160001a9053508080610e6a90612ad8565b915050610d94565b5060008190508095505050505050919050565b60007f01ffc9a7000000000000000000000000000000000000000000000000000000007bffffffffffffffffffffffffffffffffffffffffffffffffffffffff1916827bffffffffffffffffffffffffffffffffffffffffffffffffffffffff1916149050919050565b60008073ffffffffffffffffffffffffffffffffffffffff166002600084815260200190815260200160002060009054906101000a900473ffffffffffffffffffffffffffffffffffffffff1673ffffffffffffffffffffffffffffffffffffffff1614159050919050565b600033905090565b816004600083815260200190815260200160002060006101000a81548173ffffffffffffffffffffffffffffffffffffffff021916908373ffffffffffffffffffffffffffffffffffffffff160217905550808273ffffffffffffffffffffffffffffffffffffffff16610fd6836106c5565b73ffffffffffffffffffffffffffffffffffffffff167f8c5be1e5ebec7d5bd14f71427d1e84f3dd0314c0f7b2291e5b200ac8c7c3b92560405160405180910390a45050565b600061102782610eef565b611066576040517f08c379a000000000000000000000000000000000000000000000000000000000815260040161105d9061267f565b60405180910390fd5b6000611071836106c5565b90508073ffffffffffffffffffffffffffffffffffffffff168473ffffffffffffffffffffffffffffffffffffffff1614806110e057508373ffffffffffffffffffffffffffffffffffffffff166110c8846104a8565b73ffffffffffffffffffffffffffffffffffffffff16145b806110f157506110f08185610b44565b5b91505092915050565b8273ffffffffffffffffffffffffffffffffffffffff1661111a826106c5565b73ffffffffffffffffffffffffffffffffffffffff1614611170576040517f08c379a0000000000000000000000000000000000000000000000000000000008152600401611167906125ff565b60405180910390fd5b600073ffffffffffffffffffffffffffffffffffffffff168273ffffffffffffffffffffffffffffffffffffffff1614156111e0576040517f08c379a00000000000000000000000000000000000000000000000000000000081526004016111d79061263f565b60405180910390fd5b6111eb8383836116fd565b6111f6600082610f63565b6001600360008573ffffffffffffffffffffffffffffffffffffffff1673ffffffffffffffffffffffffffffffffffffffff1681526020019081526020016000206000828254611246919061298b565b925050819055506001600360008473ffffffffffffffffffffffffffffffffffffffff1673ffffffffffffffffffffffffffffffffffffffff168152602001908152602001600020600082825461129d91906128aa565b92505081905550816002600083815260200190815260200160002060006101000a81548173ffffffffffffffffffffffffffffffffffffffff021916908373ffffffffffffffffffffffffffffffffffffffff160217905550808273ffffffffffffffffffffffffffffffffffffffff168473ffffffffffffffffffffffffffffffffffffffff167fddf252ad1be2c89b69c2b068fc378daa952ba7f163c4a11628f55a4df523b3ef60405160405180910390a461135c838383611702565b505050565b8173ffffffffffffffffffffffffffffffffffffffff168373ffffffffffffffffffffffffffffffffffffffff1614156113d0576040517f08c379a00000000000000000000000000000000000000000000000000000000081526004016113c79061265f565b60405180910390fd5b80600560008573ffffffffffffffffffffffffffffffffffffffff1673ffffffffffffffffffffffffffffffffffffffff16815260200190815260200160002060008473ffffffffffffffffffffffffffffffffffffffff1673ffffffffffffffffffffffffffffffffffffffff16815260200190815260200160002060006101000a81548160ff0219169083151502179055508173ffffffffffffffffffffffffffffffffffffffff168373ffffffffffffffffffffffffffffffffffffffff167f17307eab39ab6107e8899845ad3d59bd9653f200f220920489ca2b5937696c31836040516114c191906125a2565b60405180910390a3505050565b6114d98484846110fa565b6114e584848484611707565b611524576040517f08c379a000000000000000000000000000000000000000000000000000000000815260040161151b906125df565b60405180910390fd5b50505050565b606060008251141561154d576040518060200160405280600081525090506116c4565b6000604051806060016040528060408152602001613178604091399050600060036002855161157c91906128aa565b6115869190612900565b60046115929190612931565b905060006020826115a391906128aa565b67ffffffffffffffff8111156115e2577f4e487b7100000000000000000000000000000000000000000000000000000000600052604160045260246000fd5b6040519080825280601f01601f1916602001820160405280156116145781602001600182028036833780820191505090505b509050818152600183018586518101602084015b81831015611683576003830192508251603f8160121c168501518253600182019150603f81600c1c168501518253600182019150603f8160061c168501518253600182019150603f8116850151825360018201915050611628565b60038951066001811461169d57600281146116ad576116b8565b613d3d60f01b60028303526116b8565b603d60f81b60018303525b50505050508093505050505b919050565b6116e382826040518060200160405280600081525061189e565b5050565b6001816000016000828254019250508190555050565b505050565b505050565b60006117288473ffffffffffffffffffffffffffffffffffffffff166118f9565b15611891578373ffffffffffffffffffffffffffffffffffffffff1663150b7a02611751610f5b565b8786866040518563ffffffff1660e01b81526004016117739493929190612518565b602060405180830381600087803b15801561178d57600080fd5b505af19250505080156117be57506040513d601f19601f820116820180604052508101906117bb9190611ea2565b60015b611841573d80600081146117ee576040519150601f19603f3d011682016040523d82523d6000602084013e6117f3565b606091505b50600081511415611839576040517f08c379a0000000000000000000000000000000000000000000000000000000008152600401611830906125df565b60405180910390fd5b805181602001fd5b63150b7a0260e01b7bffffffffffffffffffffffffffffffffffffffffffffffffffffffff1916817bffffffffffffffffffffffffffffffffffffffffffffffffffffffff191614915050611896565b600190505b949350505050565b6118a8838361191c565b6118b56000848484611707565b6118f4576040517f08c379a00000000000000000000000000000000000000000000000000000000081526004016118eb906125df565b60405180910390fd5b505050565b6000808273ffffffffffffffffffffffffffffffffffffffff163b119050919050565b600073ffffffffffffffffffffffffffffffffffffffff168273ffffffffffffffffffffffffffffffffffffffff16141561198c576040517f08c379a0000000000000000000000000000000000000000000000000000000008152600401611983906126ff565b60405180910390fd5b61199581610eef565b156119d5576040517f08c379a00000000000000000000000000000000000000000000000000000000081526004016119cc9061261f565b60405180910390fd5b6119e1600083836116fd565b6001600360008473ffffffffffffffffffffffffffffffffffffffff1673ffffffffffffffffffffffffffffffffffffffff1681526020019081526020016000206000828254611a3191906128aa565b92505081905550816002600083815260200190815260200160002060006101000a81548173ffffffffffffffffffffffffffffffffffffffff021916908373ffffffffffffffffffffffffffffffffffffffff160217905550808273ffffffffffffffffffffffffffffffffffffffff16600073ffffffffffffffffffffffffffffffffffffffff167fddf252ad1be2c89b69c2b068fc378daa952ba7f163c4a11628f55a4df523b3ef60405160405180910390a4611af260008383611702565b5050565b828054611b0290612a75565b90600052602060002090601f016020900481019282611b245760008555611b6b565b82601f10611b3d57805160ff1916838001178555611b6b565b82800160010185558215611b6b579182015b82811115611b6a578251825591602001919060010190611b4f565b5b509050611b789190611b7c565b5090565b5b80821115611b95576000816000905550600101611b7d565b5090565b6000611bac611ba7846127df565b6127ba565b905082815260208101848484011115611bc457600080fd5b611bcf848285612a33565b509392505050565b6000611bea611be584612810565b6127ba565b905082815260208101848484011115611c0257600080fd5b611c0d848285612a33565b509392505050565b600081359050611c248161311b565b92915050565b600081359050611c3981613132565b92915050565b600081359050611c4e81613149565b92915050565b600081519050611c6381613149565b92915050565b600082601f830112611c7a57600080fd5b8135611c8a848260208601611b99565b91505092915050565b600082601f830112611ca457600080fd5b8135611cb4848260208601611bd7565b91505092915050565b600081359050611ccc81613160565b92915050565b600060208284031215611ce457600080fd5b6000611cf284828501611c15565b91505092915050565b60008060408385031215611d0e57600080fd5b6000611d1c85828601611c15565b9250506020611d2d85828601611c15565b9150509250929050565b600080600060608486031215611d4c57600080fd5b6000611d5a86828701611c15565b9350506020611d6b86828701611c15565b9250506040611d7c86828701611cbd565b9150509250925092565b60008060008060808587031215611d9c57600080fd5b6000611daa87828801611c15565b9450506020611dbb87828801611c15565b9350506040611dcc87828801611cbd565b925050606085013567ffffffffffffffff811115611de957600080fd5b611df587828801611c69565b91505092959194509250565b60008060408385031215611e1457600080fd5b6000611e2285828601611c15565b9250506020611e3385828601611c2a565b9150509250929050565b60008060408385031215611e5057600080fd5b6000611e5e85828601611c15565b9250506020611e6f85828601611cbd565b9150509250929050565b600060208284031215611e8b57600080fd5b6000611e9984828501611c3f565b91505092915050565b600060208284031215611eb457600080fd5b6000611ec284828501611c54565b91505092915050565b600080600060608486031215611ee057600080fd5b600084013567ffffffffffffffff811115611efa57600080fd5b611f0686828701611c93565b935050602084013567ffffffffffffffff811115611f2357600080fd5b611f2f86828701611c93565b925050604084013567ffffffffffffffff811115611f4c57600080fd5b611f5886828701611c93565b9150509250925092565b600060208284031215611f7457600080fd5b6000611f8284828501611cbd565b91505092915050565b611f94816129bf565b82525050565b611fa3816129d1565b82525050565b6000611fb482612856565b611fbe818561286c565b9350611fce818560208601612a42565b611fd781612c0e565b840191505092915050565b6000611fed82612861565b611ff7818561287d565b9350612007818560208601612a42565b61201081612c0e565b840191505092915050565b600061202682612861565b612030818561288e565b9350612040818560208601612a42565b61204981612c0e565b840191505092915050565b600061205f82612861565b612069818561289f565b9350612079818560208601612a42565b80840191505092915050565b6000815461209281612a75565b61209c818661289f565b945060018216600081146120b757600181146120c8576120fb565b60ff198316865281860193506120fb565b6120d185612841565b60005b838110156120f3578154818901526001820191506020810190506120d4565b838801955050505b50505092915050565b600061211160138361289f565b915061211c82612c1f565b601382019050919050565b600061213460328361288e565b915061213f82612c48565b604082019050919050565b600061215760258361288e565b915061216282612c97565b604082019050919050565b600061217a601c8361288e565b915061218582612ce6565b602082019050919050565b600061219d60248361288e565b91506121a882612d0f565b604082019050919050565b60006121c060198361288e565b91506121cb82612d5e565b602082019050919050565b60006121e3602c8361288e565b91506121ee82612d87565b604082019050919050565b6000612206600d8361289f565b915061221182612dd6565b600d82019050919050565b600061222960388361288e565b915061223482612dff565b604082019050919050565b600061224c602a8361288e565b915061225782612e4e565b604082019050919050565b600061226f60298361288e565b915061227a82612e9d565b604082019050919050565b600061229260028361289f565b915061229d82612eec565b600282019050919050565b60006122b560208361288e565b91506122c082612f15565b602082019050919050565b60006122d8602c8361288e565b91506122e382612f3e565b604082019050919050565b60006122fb602f8361288e565b915061230682612f8d565b604082019050919050565b600061231e60278361289f565b915061232982612fdc565b602782019050919050565b6000612341600a8361289f565b915061234c8261302b565b600a82019050919050565b600061236460218361288e565b915061236f82613054565b604082019050919050565b6000612387601d8361289f565b9150612392826130a3565b601d82019050919050565b60006123aa60318361288e565b91506123b5826130cc565b604082019050919050565b600060808301600083015184820360008601526123dd8282611fe2565b915050602083015184820360208601526123f78282611fe2565b915050604083015184820360408601526124118282611fe2565b91505060608301516124266060860182612431565b508091505092915050565b61243a81612a29565b82525050565b61244981612a29565b82525050565b600061245b8285612085565b91506124678284612054565b9150612472826121f9565b91508190509392505050565b600061248982612334565b91506124958286612085565b91506124a082612104565b91506124ac8285612085565b91506124b782612311565b91506124c38284612054565b91506124ce82612285565b9150819050949350505050565b60006124e68261237a565b91506124f28284612054565b915081905092915050565b60006020820190506125126000830184611f8b565b92915050565b600060808201905061252d6000830187611f8b565b61253a6020830186611f8b565b6125476040830185612440565b81810360608301526125598184611fa9565b905095945050505050565b60006060820190506125796000830186611f8b565b6125866020830185612440565b818103604083015261259881846123c0565b9050949350505050565b60006020820190506125b76000830184611f9a565b92915050565b600060208201905081810360008301526125d7818461201b565b905092915050565b600060208201905081810360008301526125f881612127565b9050919050565b600060208201905081810360008301526126188161214a565b9050919050565b600060208201905081810360008301526126388161216d565b9050919050565b6000602082019050818103600083015261265881612190565b9050919050565b60006020820190508181036000830152612678816121b3565b9050919050565b60006020820190508181036000830152612698816121d6565b9050919050565b600060208201905081810360008301526126b88161221c565b9050919050565b600060208201905081810360008301526126d88161223f565b9050919050565b600060208201905081810360008301526126f881612262565b9050919050565b60006020820190508181036000830152612718816122a8565b9050919050565b60006020820190508181036000830152612738816122cb565b9050919050565b60006020820190508181036000830152612758816122ee565b9050919050565b6000602082019050818103600083015261277881612357565b9050919050565b600060208201905081810360008301526127988161239d565b9050919050565b60006020820190506127b46000830184612440565b92915050565b60006127c46127d5565b90506127d08282612aa7565b919050565b6000604051905090565b600067ffffffffffffffff8211156127fa576127f9612bdf565b5b61280382612c0e565b9050602081019050919050565b600067ffffffffffffffff82111561282b5761282a612bdf565b5b61283482612c0e565b9050602081019050919050565b60008190508160005260206000209050919050565b600081519050919050565b600081519050919050565b600082825260208201905092915050565b600082825260208201905092915050565b600082825260208201905092915050565b600081905092915050565b60006128b582612a29565b91506128c083612a29565b9250827fffffffffffffffffffffffffffffffffffffffffffffffffffffffffffffffff038211156128f5576128f4612b52565b5b828201905092915050565b600061290b82612a29565b915061291683612a29565b92508261292657612925612b81565b5b828204905092915050565b600061293c82612a29565b915061294783612a29565b9250817fffffffffffffffffffffffffffffffffffffffffffffffffffffffffffffffff04831182151516156129805761297f612b52565b5b828202905092915050565b600061299682612a29565b91506129a183612a29565b9250828210156129b4576129b3612b52565b5b828203905092915050565b60006129ca82612a09565b9050919050565b60008115159050919050565b60007fffffffff0000000000000000000000000000000000000000000000000000000082169050919050565b600073ffffffffffffffffffffffffffffffffffffffff82169050919050565b6000819050919050565b82818337600083830152505050565b60005b83811015612a60578082015181840152602081019050612a45565b83811115612a6f576000848401525b50505050565b60006002820490506001821680612a8d57607f821691505b60208210811415612aa157612aa0612bb0565b5b50919050565b612ab082612c0e565b810181811067ffffffffffffffff82111715612acf57612ace612bdf565b5b80604052505050565b6000612ae382612a29565b91507fffffffffffffffffffffffffffffffffffffffffffffffffffffffffffffffff821415612b1657612b15612b52565b5b600182019050919050565b6000612b2c82612a29565b9150612b3783612a29565b925082612b4757612b46612b81565b5b828206905092915050565b7f4e487b7100000000000000000000000000000000000000000000000000000000600052601160045260246000fd5b7f4e487b7100000000000000000000000000000000000000000000000000000000600052601260045260246000fd5b7f4e487b7100000000000000000000000000000000000000000000000000000000600052602260045260246000fd5b7f4e487b7100000000000000000000000000000000000000000000000000000000600052604160045260246000fd5b6000601f19601f8301169050919050565b7f222c20226465736372697074696f6e223a202200000000000000000000000000600082015250565b7f4552433732313a207472616e7366657220746f206e6f6e20455243373231526560008201527f63656976657220696d706c656d656e7465720000000000000000000000000000602082015250565b7f4552433732313a207472616e736665722066726f6d20696e636f72726563742060008201527f6f776e6572000000000000000000000000000000000000000000000000000000602082015250565b7f4552433732313a20746f6b656e20616c7265616479206d696e74656400000000600082015250565b7f4552433732313a207472616e7366657220746f20746865207a65726f2061646460008201527f7265737300000000000000000000000000000000000000000000000000000000602082015250565b7f4552433732313a20617070726f766520746f2063616c6c657200000000000000600082015250565b7f4552433732313a206f70657261746f7220717565727920666f72206e6f6e657860008201527f697374656e7420746f6b656e0000000000000000000000000000000000000000602082015250565b7f3c2f746578743e3c2f7376673e00000000000000000000000000000000000000600082015250565b7f4552433732313a20617070726f76652063616c6c6572206973206e6f74206f7760008201527f6e6572206e6f7220617070726f76656420666f7220616c6c0000000000000000602082015250565b7f4552433732313a2062616c616e636520717565727920666f7220746865207a6560008201527f726f206164647265737300000000000000000000000000000000000000000000602082015250565b7f4552433732313a206f776e657220717565727920666f72206e6f6e657869737460008201527f656e7420746f6b656e0000000000000000000000000000000000000000000000602082015250565b7f227d000000000000000000000000000000000000000000000000000000000000600082015250565b7f4552433732313a206d696e7420746f20746865207a65726f2061646472657373600082015250565b7f4552433732313a20617070726f76656420717565727920666f72206e6f6e657860008201527f697374656e7420746f6b656e0000000000000000000000000000000000000000602082015250565b7f4552433732314d657461646174613a2055524920717565727920666f72206e6f60008201527f6e6578697374656e7420746f6b656e0000000000000000000000000000000000602082015250565b7f222c2022696d616765223a2022646174613a696d6167652f7376672b786d6c3b60008201527f6261736536342c00000000000000000000000000000000000000000000000000602082015250565b7f7b226e616d65223a202200000000000000000000000000000000000000000000600082015250565b7f4552433732313a20617070726f76616c20746f2063757272656e74206f776e6560008201527f7200000000000000000000000000000000000000000000000000000000000000602082015250565b7f646174613a6170706c69636174696f6e2f6a736f6e3b6261736536342c000000600082015250565b7f4552433732313a207472616e736665722063616c6c6572206973206e6f74206f60008201527f776e6572206e6f7220617070726f766564000000000000000000000000000000602082015250565b613124816129bf565b811461312f57600080fd5b50565b61313b816129d1565b811461314657600080fd5b50565b613152816129dd565b811461315d57600080fd5b50565b61316981612a29565b811461317457600080fd5b5056fe4142434445464748494a4b4c4d4e4f505152535455565758595a6162636465666768696a6b6c6d6e6f707172737475767778797a303132333435363738392b2fa2646970667358221220b7eefd4460f53b3715abb3806c637d271ffa240e588b038f39f0feb248d77c1e64736f6c634300080400333c73766720786d6c6e733d27687474703a2f2f7777772e77332e6f72672f323030302f73766727207072657365727665417370656374526174696f3d27784d696e594d696e206d656574272076696577426f783d273020302033353020333530273e3c7374796c653e2e62617365207b2066696c6c3a2077686974653b20666f6e742d66616d696c793a2073657269663b20666f6e742d73697a653a20323470783b207d3c2f7374796c653e3c726563742077696474683d273130302527206865696768743d2731303025272066696c6c3d27626c61636b27202f3e3c7465787420783d273530252720793d273530252720636c6173733d27626173652720646f6d696e616e742d626173656c696e653d276d6964646c652720746578742d616e63686f723d276d6964646c65273e",
  "linkReferences": {},
  "deployedLinkReferences": {}
}