{
  "_format": "hh-sol-artifact-1",
  "contractName": "GratitudeNFT",
  "sourceName": "contracts/GratitudeNFT.sol",
  "abi": [
    {
      "inputs": [],
      "stateMutability": "nonpayable",
      "type": "constructor"
    },
    {
      "anonymous": false,
      "inputs": [
        {
          "indexed": true,
          "internalType": "address",
          "name": "owner",
          "type": "address"
        },
        {
          "indexed": true,
          "internalType": "address",
          "name": "approved",
          "type": "address"
        },
        {
          "indexed": true,
          "internalType": "uint256",
          "name": "tokenId",
          "type": "uint256"
        }
      ],
      "name": "Approval",
      "type": "event"
    },
    {
      "anonymous": false,
      "inputs": [
        {
          "indexed": true,
          "internalType": "address",
          "name": "owner",
          "type": "address"
        },
        {
          "indexed": true,
          "internalType": "address",
          "name": "operator",
          "type": "address"
        },
        {
          "indexed": false,
          "internalType": "bool",
          "name": "approved",
          "type": "bool"
        }
      ],
      "name": "ApprovalForAll",
      "type": "event"
    },
    {
      "anonymous": false,
      "inputs": [
        {
          "indexed": false,
          "internalType": "address",
          "name": "sender",
          "type": "address"
        },
        {
          "indexed": false,
          "internalType": "uint256",
          "name": "tokenId",
          "type": "uint256"
        },
        {
          "components": [
            {
              "internalType": "address",
              "name": "creator",
              "type": "address"
            },
            {
              "internalType": "string",
              "name": "title",
              "type": "string"
            },
            {
              "internalType": "string",
              "name": "message",
              "type": "string"
            },
            {
              "internalType": "string",
              "name": "location",
              "type": "string"
            },
            {
              "internalType": "uint256",
              "name": "timestamp",
              "type": "uint256"
            }
          ],
          "indexed": false,
          "internalType": "struct GratitudeNFT.GratitudeData",
          "name": "tokenData",
          "type": "tuple"
        }
      ],
      "name": "NewGratitudeMinted",
      "type": "event"
    },
    {
      "anonymous": false,
      "inputs": [
        {
          "indexed": true,
          "internalType": "address",
          "name": "from",
          "type": "address"
        },
        {
          "indexed": true,
          "internalType": "address",
          "name": "to",
          "type": "address"
        },
        {
          "indexed": true,
          "internalType": "uint256",
          "name": "tokenId",
          "type": "uint256"
        }
      ],
      "name": "Transfer",
      "type": "event"
    },
    {
      "inputs": [
        {
          "internalType": "address",
          "name": "to",
          "type": "address"
        },
        {
          "internalType": "uint256",
          "name": "tokenId",
          "type": "uint256"
        }
      ],
      "name": "approve",
      "outputs": [],
      "stateMutability": "nonpayable",
      "type": "function"
    },
    {
      "inputs": [
        {
          "internalType": "address",
          "name": "owner",
          "type": "address"
        }
      ],
      "name": "balanceOf",
      "outputs": [
        {
          "internalType": "uint256",
          "name": "",
          "type": "uint256"
        }
      ],
      "stateMutability": "view",
      "type": "function"
    },
    {
      "inputs": [
        {
          "internalType": "uint256",
          "name": "tokenId",
          "type": "uint256"
        }
      ],
      "name": "getApproved",
      "outputs": [
        {
          "internalType": "address",
          "name": "",
          "type": "address"
        }
      ],
      "stateMutability": "view",
      "type": "function"
    },
    {
      "inputs": [
        {
          "internalType": "uint256",
          "name": "_tokenId",
          "type": "uint256"
        }
      ],
      "name": "getGratitudeData",
      "outputs": [
        {
          "components": [
            {
              "internalType": "address",
              "name": "creator",
              "type": "address"
            },
            {
              "internalType": "string",
              "name": "title",
              "type": "string"
            },
            {
              "internalType": "string",
              "name": "message",
              "type": "string"
            },
            {
              "internalType": "string",
              "name": "location",
              "type": "string"
            },
            {
              "internalType": "uint256",
              "name": "timestamp",
              "type": "uint256"
            }
          ],
          "internalType": "struct GratitudeNFT.GratitudeData",
          "name": "",
          "type": "tuple"
        }
      ],
      "stateMutability": "view",
      "type": "function"
    },
    {
      "inputs": [
        {
          "internalType": "uint32",
          "name": "_maxNumber",
          "type": "uint32"
        }
      ],
      "name": "getLatestGratitudeData",
      "outputs": [
        {
          "components": [
            {
              "internalType": "address",
              "name": "creator",
              "type": "address"
            },
            {
              "internalType": "string",
              "name": "title",
              "type": "string"
            },
            {
              "internalType": "string",
              "name": "message",
              "type": "string"
            },
            {
              "internalType": "string",
              "name": "location",
              "type": "string"
            },
            {
              "internalType": "uint256",
              "name": "timestamp",
              "type": "uint256"
            },
            {
              "internalType": "uint256",
              "name": "tokenId",
              "type": "uint256"
            }
          ],
          "internalType": "struct GratitudeNFT.GratitudeDataWithTokenId[]",
          "name": "",
          "type": "tuple[]"
        }
      ],
      "stateMutability": "view",
      "type": "function"
    },
    {
      "inputs": [
        {
          "internalType": "address",
          "name": "owner",
          "type": "address"
        },
        {
          "internalType": "address",
          "name": "operator",
          "type": "address"
        }
      ],
      "name": "isApprovedForAll",
      "outputs": [
        {
          "internalType": "bool",
          "name": "",
          "type": "bool"
        }
      ],
      "stateMutability": "view",
      "type": "function"
    },
    {
      "inputs": [
        {
          "internalType": "string",
          "name": "_title",
          "type": "string"
        },
        {
          "internalType": "string",
          "name": "_message",
          "type": "string"
        },
        {
          "internalType": "string",
          "name": "_location",
          "type": "string"
        }
      ],
      "name": "mint",
      "outputs": [],
      "stateMutability": "nonpayable",
      "type": "function"
    },
    {
      "inputs": [],
      "name": "name",
      "outputs": [
        {
          "internalType": "string",
          "name": "",
          "type": "string"
        }
      ],
      "stateMutability": "view",
      "type": "function"
    },
    {
      "inputs": [
        {
          "internalType": "uint256",
          "name": "tokenId",
          "type": "uint256"
        }
      ],
      "name": "ownerOf",
      "outputs": [
        {
          "internalType": "address",
          "name": "",
          "type": "address"
        }
      ],
      "stateMutability": "view",
      "type": "function"
    },
    {
      "inputs": [
        {
          "internalType": "address",
          "name": "from",
          "type": "address"
        },
        {
          "internalType": "address",
          "name": "to",
          "type": "address"
        },
        {
          "internalType": "uint256",
          "name": "tokenId",
          "type": "uint256"
        }
      ],
      "name": "safeTransferFrom",
      "outputs": [],
      "stateMutability": "nonpayable",
      "type": "function"
    },
    {
      "inputs": [
        {
          "internalType": "address",
          "name": "from",
          "type": "address"
        },
        {
          "internalType": "address",
          "name": "to",
          "type": "address"
        },
        {
          "internalType": "uint256",
          "name": "tokenId",
          "type": "uint256"
        },
        {
          "internalType": "bytes",
          "name": "_data",
          "type": "bytes"
        }
      ],
      "name": "safeTransferFrom",
      "outputs": [],
      "stateMutability": "nonpayable",
      "type": "function"
    },
    {
      "inputs": [
        {
          "internalType": "address",
          "name": "operator",
          "type": "address"
        },
        {
          "internalType": "bool",
          "name": "approved",
          "type": "bool"
        }
      ],
      "name": "setApprovalForAll",
      "outputs": [],
      "stateMutability": "nonpayable",
      "type": "function"
    },
    {
      "inputs": [
        {
          "internalType": "bytes4",
          "name": "interfaceId",
          "type": "bytes4"
        }
      ],
      "name": "supportsInterface",
      "outputs": [
        {
          "internalType": "bool",
          "name": "",
          "type": "bool"
        }
      ],
      "stateMutability": "view",
      "type": "function"
    },
    {
      "inputs": [],
      "name": "symbol",
      "outputs": [
        {
          "internalType": "string",
          "name": "",
          "type": "string"
        }
      ],
      "stateMutability": "view",
      "type": "function"
    },
    {
      "inputs": [
        {
          "internalType": "uint256",
          "name": "_tokenId",
          "type": "uint256"
        }
      ],
      "name": "tokenURI",
      "outputs": [
        {
          "internalType": "string",
          "name": "",
          "type": "string"
        }
      ],
      "stateMutability": "view",
      "type": "function"
    },
    {
      "inputs": [
        {
          "internalType": "address",
          "name": "from",
          "type": "address"
        },
        {
          "internalType": "address",
          "name": "to",
          "type": "address"
        },
        {
          "internalType": "uint256",
          "name": "tokenId",
          "type": "uint256"
        }
      ],
      "name": "transferFrom",
      "outputs": [],
      "stateMutability": "nonpayable",
      "type": "function"
    }
  ],
  "bytecode": "0x608060405260405180610160016040528061012f815260200162003bc461012f91396009908051906020019062000038929190620000ed565b503480156200004657600080fd5b506040518060400160405280600c81526020017f4772617469747564654e465400000000000000000000000000000000000000008152506040518060400160405280600981526020017f47726174697475646500000000000000000000000000000000000000000000008152508160009080519060200190620000cb929190620000ed565b508060019080519060200190620000e4929190620000ed565b50505062000202565b828054620000fb906200019d565b90600052602060002090601f0160209004810192826200011f57600085556200016b565b82601f106200013a57805160ff19168380011785556200016b565b828001600101855582156200016b579182015b828111156200016a5782518255916020019190600101906200014d565b5b5090506200017a91906200017e565b5090565b5b80821115620001995760008160009055506001016200017f565b5090565b60006002820490506001821680620001b657607f821691505b60208210811415620001cd57620001cc620001d3565b5b50919050565b7f4e487b7100000000000000000000000000000000000000000000000000000000600052602260045260246000fd5b6139b280620002126000396000f3fe608060405234801561001057600080fd5b50600436106101005760003560e01c806395d89b4111610097578063c87b56dd11610066578063c87b56dd146102bd578063d645ddf6146102ed578063e985e9c514610309578063ff9a973a1461033957610100565b806395d89b4114610237578063a22cb46514610255578063af4a733d14610271578063b88d4fde146102a157610100565b806323b872dd116100d357806323b872dd1461019f57806342842e0e146101bb5780636352211e146101d757806370a082311461020757610100565b806301ffc9a71461010557806306fdde0314610135578063081812fc14610153578063095ea7b314610183575b600080fd5b61011f600480360381019061011a9190612380565b610369565b60405161012c9190612c7a565b60405180910390f35b61013d61044b565b60405161014a9190612c95565b60405180910390f35b61016d60048036038101906101689190612469565b6104dd565b60405161017a9190612bb3565b60405180910390f35b61019d60048036038101906101989190612344565b610562565b005b6101b960048036038101906101b4919061223e565b61067a565b005b6101d560048036038101906101d0919061223e565b6106da565b005b6101f160048036038101906101ec9190612469565b6106fa565b6040516101fe9190612bb3565b60405180910390f35b610221600480360381019061021c91906121d9565b6107ac565b60405161022e9190612eb9565b60405180910390f35b61023f610864565b60405161024c9190612c95565b60405180910390f35b61026f600480360381019061026a9190612308565b6108f6565b005b61028b60048036038101906102869190612469565b61090c565b6040516102989190612e97565b60405180910390f35b6102bb60048036038101906102b6919061228d565b610b9a565b005b6102d760048036038101906102d29190612469565b610bfc565b6040516102e49190612c95565b60405180910390f35b610307600480360381019061030291906123d2565b610cfc565b005b610323600480360381019061031e9190612202565b610e78565b6040516103309190612c7a565b60405180910390f35b610353600480360381019061034e9190612492565b610f0c565b6040516103609190612c58565b60405180910390f35b60007f80ac58cd000000000000000000000000000000000000000000000000000000007bffffffffffffffffffffffffffffffffffffffffffffffffffffffff1916827bffffffffffffffffffffffffffffffffffffffffffffffffffffffff1916148061043457507f5b5e139f000000000000000000000000000000000000000000000000000000007bffffffffffffffffffffffffffffffffffffffffffffffffffffffff1916827bffffffffffffffffffffffffffffffffffffffffffffffffffffffff1916145b806104445750610443826112d8565b5b9050919050565b60606000805461045a90613202565b80601f016020809104026020016040519081016040528092919081815260200182805461048690613202565b80156104d35780601f106104a8576101008083540402835291602001916104d3565b820191906000526020600020905b8154815290600101906020018083116104b657829003601f168201915b5050505050905090565b60006104e882611342565b610527576040517f08c379a000000000000000000000000000000000000000000000000000000000815260040161051e90612e17565b60405180910390fd5b6004600083815260200190815260200160002060009054906101000a900473ffffffffffffffffffffffffffffffffffffffff169050919050565b600061056d826106fa565b90508073ffffffffffffffffffffffffffffffffffffffff168373ffffffffffffffffffffffffffffffffffffffff1614156105de576040517f08c379a00000000000000000000000000000000000000000000000000000000081526004016105d590612e57565b60405180910390fd5b8073ffffffffffffffffffffffffffffffffffffffff166105fd6113ae565b73ffffffffffffffffffffffffffffffffffffffff16148061062c575061062b816106266113ae565b610e78565b5b61066b576040517f08c379a000000000000000000000000000000000000000000000000000000000815260040161066290612d97565b60405180910390fd5b61067583836113b6565b505050565b61068b6106856113ae565b8261146f565b6106ca576040517f08c379a00000000000000000000000000000000000000000000000000000000081526004016106c190612e77565b60405180910390fd5b6106d583838361154d565b505050565b6106f583838360405180602001604052806000815250610b9a565b505050565b6000806002600084815260200190815260200160002060009054906101000a900473ffffffffffffffffffffffffffffffffffffffff169050600073ffffffffffffffffffffffffffffffffffffffff168173ffffffffffffffffffffffffffffffffffffffff1614156107a3576040517f08c379a000000000000000000000000000000000000000000000000000000000815260040161079a90612dd7565b60405180910390fd5b80915050919050565b60008073ffffffffffffffffffffffffffffffffffffffff168273ffffffffffffffffffffffffffffffffffffffff16141561081d576040517f08c379a000000000000000000000000000000000000000000000000000000000815260040161081490612db7565b60405180910390fd5b600360008373ffffffffffffffffffffffffffffffffffffffff1673ffffffffffffffffffffffffffffffffffffffff168152602001908152602001600020549050919050565b60606001805461087390613202565b80601f016020809104026020016040519081016040528092919081815260200182805461089f90613202565b80156108ec5780601f106108c1576101008083540402835291602001916108ec565b820191906000526020600020905b8154815290600101906020018083116108cf57829003601f168201915b5050505050905090565b6109086109016113ae565b83836117b4565b5050565b610914611f57565b61091e6006611921565b821061095f576040517f08c379a000000000000000000000000000000000000000000000000000000000815260040161095690612d17565b60405180910390fd5b600760008381526020019081526020016000206040518060a00160405290816000820160009054906101000a900473ffffffffffffffffffffffffffffffffffffffff1673ffffffffffffffffffffffffffffffffffffffff1673ffffffffffffffffffffffffffffffffffffffff1681526020016001820180546109e390613202565b80601f0160208091040260200160405190810160405280929190818152602001828054610a0f90613202565b8015610a5c5780601f10610a3157610100808354040283529160200191610a5c565b820191906000526020600020905b815481529060010190602001808311610a3f57829003601f168201915b50505050508152602001600282018054610a7590613202565b80601f0160208091040260200160405190810160405280929190818152602001828054610aa190613202565b8015610aee5780601f10610ac357610100808354040283529160200191610aee565b820191906000526020600020905b815481529060010190602001808311610ad157829003601f168201915b50505050508152602001600382018054610b0790613202565b80601f0160208091040260200160405190810160405280929190818152602001828054610b3390613202565b8015610b805780601f10610b5557610100808354040283529160200191610b80565b820191906000526020600020905b815481529060010190602001808311610b6357829003601f168201915b505050505081526020016004820154815250509050919050565b610bab610ba56113ae565b8361146f565b610bea576040517f08c379a0000000000000000000000000000000000000000000000000000000008152600401610be190612e77565b60405180910390fd5b610bf68484848461192f565b50505050565b6060610c0782611342565b610c46576040517f08c379a0000000000000000000000000000000000000000000000000000000008152600401610c3d90612e37565b60405180910390fd5b60006009604051602001610c5a9190612b07565b60405160208183030381529060405290506000610ccb6007600086815260200190815260200160002060010160076000878152602001908152602001600020600201610ca58561198b565b604051602001610cb793929190612b34565b60405160208183030381529060405261198b565b9050600081604051602001610ce09190612b91565b6040516020818303038152906040529050809350505050919050565b610d066006611b2a565b6000610d126006611921565b9050610d1e3382611b40565b60006040518060a001604052803373ffffffffffffffffffffffffffffffffffffffff168152602001868152602001858152602001848152602001428152509050806007600084815260200190815260200160002060008201518160000160006101000a81548173ffffffffffffffffffffffffffffffffffffffff021916908373ffffffffffffffffffffffffffffffffffffffff1602179055506020820151816001019080519060200190610dd6929190611f9c565b506040820151816002019080519060200190610df3929190611f9c565b506060820151816003019080519060200190610e10929190611f9c565b506080820151816004015590505060086000815480929190610e3190613265565b91905055507ffd35c83074d5664aa245a805543c673dce88405dd1304764064522e75986bffb338383604051610e6993929190612c1a565b60405180910390a15050505050565b6000600560008473ffffffffffffffffffffffffffffffffffffffff1673ffffffffffffffffffffffffffffffffffffffff16815260200190815260200160002060008373ffffffffffffffffffffffffffffffffffffffff1673ffffffffffffffffffffffffffffffffffffffff16815260200190815260200160002060009054906101000a900460ff16905092915050565b606060008263ffffffff169050600854811115610f295760085490505b60008167ffffffffffffffff811115610f6b577f4e487b7100000000000000000000000000000000000000000000000000000000600052604160045260246000fd5b604051908082528060200260200182016040528015610fa457816020015b610f91612022565b815260200190600190039081610f895790505b509050600060085490506000610fb8611f57565b5b600185600854610fc991906130de565b610fd39190612ffd565b83106112cb57600760008481526020019081526020016000206040518060a00160405290816000820160009054906101000a900473ffffffffffffffffffffffffffffffffffffffff1673ffffffffffffffffffffffffffffffffffffffff1673ffffffffffffffffffffffffffffffffffffffff16815260200160018201805461105d90613202565b80601f016020809104026020016040519081016040528092919081815260200182805461108990613202565b80156110d65780601f106110ab576101008083540402835291602001916110d6565b820191906000526020600020905b8154815290600101906020018083116110b957829003601f168201915b505050505081526020016002820180546110ef90613202565b80601f016020809104026020016040519081016040528092919081815260200182805461111b90613202565b80156111685780601f1061113d57610100808354040283529160200191611168565b820191906000526020600020905b81548152906001019060200180831161114b57829003601f168201915b5050505050815260200160038201805461118190613202565b80601f01602080910402602001604051908101604052809291908181526020018280546111ad90613202565b80156111fa5780601f106111cf576101008083540402835291602001916111fa565b820191906000526020600020905b8154815290600101906020018083116111dd57829003601f168201915b5050505050815260200160048201548152505090506040518060c00160405280826000015173ffffffffffffffffffffffffffffffffffffffff168152602001826020015181526020018260400151815260200182606001518152602001826080015181526020018481525084838151811061129f577f4e487b7100000000000000000000000000000000000000000000000000000000600052603260045260246000fd5b602002602001018190525081806112b590613265565b92505082806112c3906131d8565b935050610fb9565b8395505050505050919050565b60007f01ffc9a7000000000000000000000000000000000000000000000000000000007bffffffffffffffffffffffffffffffffffffffffffffffffffffffff1916827bffffffffffffffffffffffffffffffffffffffffffffffffffffffff1916149050919050565b60008073ffffffffffffffffffffffffffffffffffffffff166002600084815260200190815260200160002060009054906101000a900473ffffffffffffffffffffffffffffffffffffffff1673ffffffffffffffffffffffffffffffffffffffff1614159050919050565b600033905090565b816004600083815260200190815260200160002060006101000a81548173ffffffffffffffffffffffffffffffffffffffff021916908373ffffffffffffffffffffffffffffffffffffffff160217905550808273ffffffffffffffffffffffffffffffffffffffff16611429836106fa565b73ffffffffffffffffffffffffffffffffffffffff167f8c5be1e5ebec7d5bd14f71427d1e84f3dd0314c0f7b2291e5b200ac8c7c3b92560405160405180910390a45050565b600061147a82611342565b6114b9576040517f08c379a00000000000000000000000000000000000000000000000000000000081526004016114b090612d77565b60405180910390fd5b60006114c4836106fa565b90508073ffffffffffffffffffffffffffffffffffffffff168473ffffffffffffffffffffffffffffffffffffffff16148061153357508373ffffffffffffffffffffffffffffffffffffffff1661151b846104dd565b73ffffffffffffffffffffffffffffffffffffffff16145b8061154457506115438185610e78565b5b91505092915050565b8273ffffffffffffffffffffffffffffffffffffffff1661156d826106fa565b73ffffffffffffffffffffffffffffffffffffffff16146115c3576040517f08c379a00000000000000000000000000000000000000000000000000000000081526004016115ba90612cd7565b60405180910390fd5b600073ffffffffffffffffffffffffffffffffffffffff168273ffffffffffffffffffffffffffffffffffffffff161415611633576040517f08c379a000000000000000000000000000000000000000000000000000000000815260040161162a90612d37565b60405180910390fd5b61163e838383611b5e565b6116496000826113b6565b6001600360008573ffffffffffffffffffffffffffffffffffffffff1673ffffffffffffffffffffffffffffffffffffffff168152602001908152602001600020600082825461169991906130de565b925050819055506001600360008473ffffffffffffffffffffffffffffffffffffffff1673ffffffffffffffffffffffffffffffffffffffff16815260200190815260200160002060008282546116f09190612ffd565b92505081905550816002600083815260200190815260200160002060006101000a81548173ffffffffffffffffffffffffffffffffffffffff021916908373ffffffffffffffffffffffffffffffffffffffff160217905550808273ffffffffffffffffffffffffffffffffffffffff168473ffffffffffffffffffffffffffffffffffffffff167fddf252ad1be2c89b69c2b068fc378daa952ba7f163c4a11628f55a4df523b3ef60405160405180910390a46117af838383611b63565b505050565b8173ffffffffffffffffffffffffffffffffffffffff168373ffffffffffffffffffffffffffffffffffffffff161415611823576040517f08c379a000000000000000000000000000000000000000000000000000000000815260040161181a90612d57565b60405180910390fd5b80600560008573ffffffffffffffffffffffffffffffffffffffff1673ffffffffffffffffffffffffffffffffffffffff16815260200190815260200160002060008473ffffffffffffffffffffffffffffffffffffffff1673ffffffffffffffffffffffffffffffffffffffff16815260200190815260200160002060006101000a81548160ff0219169083151502179055508173ffffffffffffffffffffffffffffffffffffffff168373ffffffffffffffffffffffffffffffffffffffff167f17307eab39ab6107e8899845ad3d59bd9653f200f220920489ca2b5937696c31836040516119149190612c7a565b60405180910390a3505050565b600081600001549050919050565b61193a84848461154d565b61194684848484611b68565b611985576040517f08c379a000000000000000000000000000000000000000000000000000000000815260040161197c90612cb7565b60405180910390fd5b50505050565b60606000825114156119ae57604051806020016040528060008152509050611b25565b600060405180606001604052806040815260200161393d60409139905060006003600285516119dd9190612ffd565b6119e79190613053565b60046119f39190613084565b90506000602082611a049190612ffd565b67ffffffffffffffff811115611a43577f4e487b7100000000000000000000000000000000000000000000000000000000600052604160045260246000fd5b6040519080825280601f01601f191660200182016040528015611a755781602001600182028036833780820191505090505b509050818152600183018586518101602084015b81831015611ae4576003830192508251603f8160121c168501518253600182019150603f81600c1c168501518253600182019150603f8160061c168501518253600182019150603f8116850151825360018201915050611a89565b600389510660018114611afe5760028114611b0e57611b19565b613d3d60f01b6002830352611b19565b603d60f81b60018303525b50505050508093505050505b919050565b6001816000016000828254019250508190555050565b611b5a828260405180602001604052806000815250611cff565b5050565b505050565b505050565b6000611b898473ffffffffffffffffffffffffffffffffffffffff16611d5a565b15611cf2578373ffffffffffffffffffffffffffffffffffffffff1663150b7a02611bb26113ae565b8786866040518563ffffffff1660e01b8152600401611bd49493929190612bce565b602060405180830381600087803b158015611bee57600080fd5b505af1925050508015611c1f57506040513d601f19601f82011682018060405250810190611c1c91906123a9565b60015b611ca2573d8060008114611c4f576040519150601f19603f3d011682016040523d82523d6000602084013e611c54565b606091505b50600081511415611c9a576040517f08c379a0000000000000000000000000000000000000000000000000000000008152600401611c9190612cb7565b60405180910390fd5b805181602001fd5b63150b7a0260e01b7bffffffffffffffffffffffffffffffffffffffffffffffffffffffff1916817bffffffffffffffffffffffffffffffffffffffffffffffffffffffff191614915050611cf7565b600190505b949350505050565b611d098383611d7d565b611d166000848484611b68565b611d55576040517f08c379a0000000000000000000000000000000000000000000000000000000008152600401611d4c90612cb7565b60405180910390fd5b505050565b6000808273ffffffffffffffffffffffffffffffffffffffff163b119050919050565b600073ffffffffffffffffffffffffffffffffffffffff168273ffffffffffffffffffffffffffffffffffffffff161415611ded576040517f08c379a0000000000000000000000000000000000000000000000000000000008152600401611de490612df7565b60405180910390fd5b611df681611342565b15611e36576040517f08c379a0000000000000000000000000000000000000000000000000000000008152600401611e2d90612cf7565b60405180910390fd5b611e4260008383611b5e565b6001600360008473ffffffffffffffffffffffffffffffffffffffff1673ffffffffffffffffffffffffffffffffffffffff1681526020019081526020016000206000828254611e929190612ffd565b92505081905550816002600083815260200190815260200160002060006101000a81548173ffffffffffffffffffffffffffffffffffffffff021916908373ffffffffffffffffffffffffffffffffffffffff160217905550808273ffffffffffffffffffffffffffffffffffffffff16600073ffffffffffffffffffffffffffffffffffffffff167fddf252ad1be2c89b69c2b068fc378daa952ba7f163c4a11628f55a4df523b3ef60405160405180910390a4611f5360008383611b63565b5050565b6040518060a00160405280600073ffffffffffffffffffffffffffffffffffffffff168152602001606081526020016060815260200160608152602001600081525090565b828054611fa890613202565b90600052602060002090601f016020900481019282611fca5760008555612011565b82601f10611fe357805160ff1916838001178555612011565b82800160010185558215612011579182015b82811115612010578251825591602001919060010190611ff5565b5b50905061201e919061206e565b5090565b6040518060c00160405280600073ffffffffffffffffffffffffffffffffffffffff16815260200160608152602001606081526020016060815260200160008152602001600081525090565b5b8082111561208757600081600090555060010161206f565b5090565b600061209e61209984612ef9565b612ed4565b9050828152602081018484840111156120b657600080fd5b6120c1848285613196565b509392505050565b60006120dc6120d784612f2a565b612ed4565b9050828152602081018484840111156120f457600080fd5b6120ff848285613196565b509392505050565b600081359050612116816138c9565b92915050565b60008135905061212b816138e0565b92915050565b600081359050612140816138f7565b92915050565b600081519050612155816138f7565b92915050565b600082601f83011261216c57600080fd5b813561217c84826020860161208b565b91505092915050565b600082601f83011261219657600080fd5b81356121a68482602086016120c9565b91505092915050565b6000813590506121be8161390e565b92915050565b6000813590506121d381613925565b92915050565b6000602082840312156121eb57600080fd5b60006121f984828501612107565b91505092915050565b6000806040838503121561221557600080fd5b600061222385828601612107565b925050602061223485828601612107565b9150509250929050565b60008060006060848603121561225357600080fd5b600061226186828701612107565b935050602061227286828701612107565b9250506040612283868287016121af565b9150509250925092565b600080600080608085870312156122a357600080fd5b60006122b187828801612107565b94505060206122c287828801612107565b93505060406122d3878288016121af565b925050606085013567ffffffffffffffff8111156122f057600080fd5b6122fc8782880161215b565b91505092959194509250565b6000806040838503121561231b57600080fd5b600061232985828601612107565b925050602061233a8582860161211c565b9150509250929050565b6000806040838503121561235757600080fd5b600061236585828601612107565b9250506020612376858286016121af565b9150509250929050565b60006020828403121561239257600080fd5b60006123a084828501612131565b91505092915050565b6000602082840312156123bb57600080fd5b60006123c984828501612146565b91505092915050565b6000806000606084860312156123e757600080fd5b600084013567ffffffffffffffff81111561240157600080fd5b61240d86828701612185565b935050602084013567ffffffffffffffff81111561242a57600080fd5b61243686828701612185565b925050604084013567ffffffffffffffff81111561245357600080fd5b61245f86828701612185565b9150509250925092565b60006020828403121561247b57600080fd5b6000612489848285016121af565b91505092915050565b6000602082840312156124a457600080fd5b60006124b2848285016121c4565b91505092915050565b60006124c783836129ce565b905092915050565b6124d881613112565b82525050565b6124e781613112565b82525050565b60006124f882612f80565b6125028185612fae565b93508360208202850161251485612f5b565b8060005b85811015612550578484038952815161253185826124bb565b945061253c83612fa1565b925060208a01995050600181019050612518565b50829750879550505050505092915050565b61256b81613124565b82525050565b600061257c82612f8b565b6125868185612fbf565b93506125968185602086016131a5565b61259f8161336a565b840191505092915050565b60006125b582612f96565b6125bf8185612fd0565b93506125cf8185602086016131a5565b6125d88161336a565b840191505092915050565b60006125ee82612f96565b6125f88185612fe1565b93506126088185602086016131a5565b6126118161336a565b840191505092915050565b600061262782612f96565b6126318185612ff2565b93506126418185602086016131a5565b80840191505092915050565b6000815461265a81613202565b6126648186612ff2565b9450600182166000811461267f5760018114612690576126c3565b60ff198316865281860193506126c3565b61269985612f6b565b60005b838110156126bb5781548189015260018201915060208101905061269c565b838801955050505b50505092915050565b60006126d9601383612ff2565b91506126e48261337b565b601382019050919050565b60006126fc603283612fe1565b9150612707826133a4565b604082019050919050565b600061271f602583612fe1565b915061272a826133f3565b604082019050919050565b6000612742601c83612fe1565b915061274d82613442565b602082019050919050565b6000612765601183612fe1565b91506127708261346b565b602082019050919050565b6000612788602483612fe1565b915061279382613494565b604082019050919050565b60006127ab601983612fe1565b91506127b6826134e3565b602082019050919050565b60006127ce602c83612fe1565b91506127d98261350c565b604082019050919050565b60006127f1600d83612ff2565b91506127fc8261355b565b600d82019050919050565b6000612814603883612fe1565b915061281f82613584565b604082019050919050565b6000612837602a83612fe1565b9150612842826135d3565b604082019050919050565b600061285a602983612fe1565b915061286582613622565b604082019050919050565b600061287d600283612ff2565b915061288882613671565b600282019050919050565b60006128a0602083612fe1565b91506128ab8261369a565b602082019050919050565b60006128c3602c83612fe1565b91506128ce826136c3565b604082019050919050565b60006128e6602f83612fe1565b91506128f182613712565b604082019050919050565b6000612909602783612ff2565b915061291482613761565b602782019050919050565b600061292c600a83612ff2565b9150612937826137b0565b600a82019050919050565b600061294f602183612fe1565b915061295a826137d9565b604082019050919050565b6000612972601d83612ff2565b915061297d82613828565b601d82019050919050565b6000612995603183612fe1565b91506129a082613851565b604082019050919050565b60006129b8600c83612ff2565b91506129c3826138a0565b600c82019050919050565b600060c0830160008301516129e660008601826124cf565b50602083015184820360208601526129fe82826125aa565b91505060408301518482036040860152612a1882826125aa565b91505060608301518482036060860152612a3282826125aa565b9150506080830151612a476080860182612ae9565b5060a0830151612a5a60a0860182612ae9565b508091505092915050565b600060a083016000830151612a7d60008601826124cf565b5060208301518482036020860152612a9582826125aa565b91505060408301518482036040860152612aaf82826125aa565b91505060608301518482036060860152612ac982826125aa565b9150506080830151612ade6080860182612ae9565b508091505092915050565b612af28161317c565b82525050565b612b018161317c565b82525050565b6000612b13828461264d565b9150612b1e826129ab565b9150612b29826127e4565b915081905092915050565b6000612b3f8261291f565b9150612b4b828661264d565b9150612b56826126cc565b9150612b62828561264d565b9150612b6d826128fc565b9150612b79828461261c565b9150612b8482612870565b9150819050949350505050565b6000612b9c82612965565b9150612ba8828461261c565b915081905092915050565b6000602082019050612bc860008301846124de565b92915050565b6000608082019050612be360008301876124de565b612bf060208301866124de565b612bfd6040830185612af8565b8181036060830152612c0f8184612571565b905095945050505050565b6000606082019050612c2f60008301866124de565b612c3c6020830185612af8565b8181036040830152612c4e8184612a65565b9050949350505050565b60006020820190508181036000830152612c7281846124ed565b905092915050565b6000602082019050612c8f6000830184612562565b92915050565b60006020820190508181036000830152612caf81846125e3565b905092915050565b60006020820190508181036000830152612cd0816126ef565b9050919050565b60006020820190508181036000830152612cf081612712565b9050919050565b60006020820190508181036000830152612d1081612735565b9050919050565b60006020820190508181036000830152612d3081612758565b9050919050565b60006020820190508181036000830152612d508161277b565b9050919050565b60006020820190508181036000830152612d708161279e565b9050919050565b60006020820190508181036000830152612d90816127c1565b9050919050565b60006020820190508181036000830152612db081612807565b9050919050565b60006020820190508181036000830152612dd08161282a565b9050919050565b60006020820190508181036000830152612df08161284d565b9050919050565b60006020820190508181036000830152612e1081612893565b9050919050565b60006020820190508181036000830152612e30816128b6565b9050919050565b60006020820190508181036000830152612e50816128d9565b9050919050565b60006020820190508181036000830152612e7081612942565b9050919050565b60006020820190508181036000830152612e9081612988565b9050919050565b60006020820190508181036000830152612eb18184612a65565b905092915050565b6000602082019050612ece6000830184612af8565b92915050565b6000612ede612eef565b9050612eea8282613234565b919050565b6000604051905090565b600067ffffffffffffffff821115612f1457612f1361333b565b5b612f1d8261336a565b9050602081019050919050565b600067ffffffffffffffff821115612f4557612f4461333b565b5b612f4e8261336a565b9050602081019050919050565b6000819050602082019050919050565b60008190508160005260206000209050919050565b600081519050919050565b600081519050919050565b600081519050919050565b6000602082019050919050565b600082825260208201905092915050565b600082825260208201905092915050565b600082825260208201905092915050565b600082825260208201905092915050565b600081905092915050565b60006130088261317c565b91506130138361317c565b9250827fffffffffffffffffffffffffffffffffffffffffffffffffffffffffffffffff03821115613048576130476132ae565b5b828201905092915050565b600061305e8261317c565b91506130698361317c565b925082613079576130786132dd565b5b828204905092915050565b600061308f8261317c565b915061309a8361317c565b9250817fffffffffffffffffffffffffffffffffffffffffffffffffffffffffffffffff04831182151516156130d3576130d26132ae565b5b828202905092915050565b60006130e98261317c565b91506130f48361317c565b925082821015613107576131066132ae565b5b828203905092915050565b600061311d8261315c565b9050919050565b60008115159050919050565b60007fffffffff0000000000000000000000000000000000000000000000000000000082169050919050565b600073ffffffffffffffffffffffffffffffffffffffff82169050919050565b6000819050919050565b600063ffffffff82169050919050565b82818337600083830152505050565b60005b838110156131c35780820151818401526020810190506131a8565b838111156131d2576000848401525b50505050565b60006131e38261317c565b915060008214156131f7576131f66132ae565b5b600182039050919050565b6000600282049050600182168061321a57607f821691505b6020821081141561322e5761322d61330c565b5b50919050565b61323d8261336a565b810181811067ffffffffffffffff8211171561325c5761325b61333b565b5b80604052505050565b60006132708261317c565b91507fffffffffffffffffffffffffffffffffffffffffffffffffffffffffffffffff8214156132a3576132a26132ae565b5b600182019050919050565b7f4e487b7100000000000000000000000000000000000000000000000000000000600052601160045260246000fd5b7f4e487b7100000000000000000000000000000000000000000000000000000000600052601260045260246000fd5b7f4e487b7100000000000000000000000000000000000000000000000000000000600052602260045260246000fd5b7f4e487b7100000000000000000000000000000000000000000000000000000000600052604160045260246000fd5b6000601f19601f8301169050919050565b7f222c20226465736372697074696f6e223a202200000000000000000000000000600082015250565b7f4552433732313a207472616e7366657220746f206e6f6e20455243373231526560008201527f63656976657220696d706c656d656e7465720000000000000000000000000000602082015250565b7f4552433732313a207472616e736665722066726f6d20696e636f72726563742060008201527f6f776e6572000000000000000000000000000000000000000000000000000000602082015250565b7f4552433732313a20746f6b656e20616c7265616479206d696e74656400000000600082015250565b7f496e76616c696420746f6b656e2049642e000000000000000000000000000000600082015250565b7f4552433732313a207472616e7366657220746f20746865207a65726f2061646460008201527f7265737300000000000000000000000000000000000000000000000000000000602082015250565b7f4552433732313a20617070726f766520746f2063616c6c657200000000000000600082015250565b7f4552433732313a206f70657261746f7220717565727920666f72206e6f6e657860008201527f697374656e7420746f6b656e0000000000000000000000000000000000000000602082015250565b7f3c2f746578743e3c2f7376673e00000000000000000000000000000000000000600082015250565b7f4552433732313a20617070726f76652063616c6c6572206973206e6f74206f7760008201527f6e6572206e6f7220617070726f76656420666f7220616c6c0000000000000000602082015250565b7f4552433732313a2062616c616e636520717565727920666f7220746865207a6560008201527f726f206164647265737300000000000000000000000000000000000000000000602082015250565b7f4552433732313a206f776e657220717565727920666f72206e6f6e657869737460008201527f656e7420746f6b656e0000000000000000000000000000000000000000000000602082015250565b7f227d000000000000000000000000000000000000000000000000000000000000600082015250565b7f4552433732313a206d696e7420746f20746865207a65726f2061646472657373600082015250565b7f4552433732313a20617070726f76656420717565727920666f72206e6f6e657860008201527f697374656e7420746f6b656e0000000000000000000000000000000000000000602082015250565b7f4552433732314d657461646174613a2055524920717565727920666f72206e6f60008201527f6e6578697374656e7420746f6b656e0000000000000000000000000000000000602082015250565b7f222c2022696d616765223a2022646174613a696d6167652f7376672b786d6c3b60008201527f6261736536342c00000000000000000000000000000000000000000000000000602082015250565b7f7b226e616d65223a202200000000000000000000000000000000000000000000600082015250565b7f4552433732313a20617070726f76616c20746f2063757272656e74206f776e6560008201527f7200000000000000000000000000000000000000000000000000000000000000602082015250565b7f646174613a6170706c69636174696f6e2f6a736f6e3b6261736536342c000000600082015250565b7f4552433732313a207472616e736665722063616c6c6572206973206e6f74206f60008201527f776e6572206e6f7220617070726f766564000000000000000000000000000000602082015250565b7f4772617469747564654e46540000000000000000000000000000000000000000600082015250565b6138d281613112565b81146138dd57600080fd5b50565b6138e981613124565b81146138f457600080fd5b50565b61390081613130565b811461390b57600080fd5b50565b6139178161317c565b811461392257600080fd5b50565b61392e81613186565b811461393957600080fd5b5056fe4142434445464748494a4b4c4d4e4f505152535455565758595a6162636465666768696a6b6c6d6e6f707172737475767778797a303132333435363738392b2fa26469706673582212206c5dfd8d28d367b49dc0c7ecc2a02601ecd33afd223aba6abde3421d5318955164736f6c634300080400333c73766720786d6c6e733d27687474703a2f2f7777772e77332e6f72672f323030302f73766727207072657365727665417370656374526174696f3d27784d696e594d696e206d656574272076696577426f783d273020302033353020333530273e3c7374796c653e2e62617365207b2066696c6c3a2077686974653b20666f6e742d66616d696c793a2073657269663b20666f6e742d73697a653a20323470783b207d3c2f7374796c653e3c726563742077696474683d273130302527206865696768743d2731303025272066696c6c3d27626c61636b27202f3e3c7465787420783d273530252720793d273530252720636c6173733d27626173652720646f6d696e616e742d626173656c696e653d276d6964646c652720746578742d616e63686f723d276d6964646c65273e",
  "linkReferences": {},
  "deployedLinkReferences": {}
}