{
  "_format": "hh-sol-artifact-1",
  "contractName": "GratitudeNFT",
  "sourceName": "contracts/GratitudeNFT.sol",
  "abi": [
    {
      "inputs": [],
      "stateMutability": "nonpayable",
      "type": "constructor"
    },
    {
      "anonymous": false,
      "inputs": [
        {
          "indexed": true,
          "internalType": "address",
          "name": "owner",
          "type": "address"
        },
        {
          "indexed": true,
          "internalType": "address",
          "name": "approved",
          "type": "address"
        },
        {
          "indexed": true,
          "internalType": "uint256",
          "name": "tokenId",
          "type": "uint256"
        }
      ],
      "name": "Approval",
      "type": "event"
    },
    {
      "anonymous": false,
      "inputs": [
        {
          "indexed": true,
          "internalType": "address",
          "name": "owner",
          "type": "address"
        },
        {
          "indexed": true,
          "internalType": "address",
          "name": "operator",
          "type": "address"
        },
        {
          "indexed": false,
          "internalType": "bool",
          "name": "approved",
          "type": "bool"
        }
      ],
      "name": "ApprovalForAll",
      "type": "event"
    },
    {
      "anonymous": false,
      "inputs": [
        {
          "indexed": false,
          "internalType": "address",
          "name": "sender",
          "type": "address"
        },
        {
          "indexed": false,
          "internalType": "uint256",
          "name": "tokenId",
          "type": "uint256"
        },
        {
          "components": [
            {
              "internalType": "string",
              "name": "title",
              "type": "string"
            },
            {
              "internalType": "string",
              "name": "message",
              "type": "string"
            },
            {
              "internalType": "string",
              "name": "location",
              "type": "string"
            },
            {
              "internalType": "uint256",
              "name": "timestamp",
              "type": "uint256"
            }
          ],
          "indexed": false,
          "internalType": "struct GratitudeNFT.GratitudeData",
          "name": "tokenData",
          "type": "tuple"
        }
      ],
      "name": "NewGratitudeMinted",
      "type": "event"
    },
    {
      "anonymous": false,
      "inputs": [
        {
          "indexed": true,
          "internalType": "address",
          "name": "from",
          "type": "address"
        },
        {
          "indexed": true,
          "internalType": "address",
          "name": "to",
          "type": "address"
        },
        {
          "indexed": true,
          "internalType": "uint256",
          "name": "tokenId",
          "type": "uint256"
        }
      ],
      "name": "Transfer",
      "type": "event"
    },
    {
      "inputs": [
        {
          "internalType": "address",
          "name": "to",
          "type": "address"
        },
        {
          "internalType": "uint256",
          "name": "tokenId",
          "type": "uint256"
        }
      ],
      "name": "approve",
      "outputs": [],
      "stateMutability": "nonpayable",
      "type": "function"
    },
    {
      "inputs": [
        {
          "internalType": "address",
          "name": "owner",
          "type": "address"
        }
      ],
      "name": "balanceOf",
      "outputs": [
        {
          "internalType": "uint256",
          "name": "",
          "type": "uint256"
        }
      ],
      "stateMutability": "view",
      "type": "function"
    },
    {
      "inputs": [
        {
          "internalType": "uint256",
          "name": "tokenId",
          "type": "uint256"
        }
      ],
      "name": "getApproved",
      "outputs": [
        {
          "internalType": "address",
          "name": "",
          "type": "address"
        }
      ],
      "stateMutability": "view",
      "type": "function"
    },
    {
      "inputs": [
        {
          "internalType": "address",
          "name": "owner",
          "type": "address"
        },
        {
          "internalType": "address",
          "name": "operator",
          "type": "address"
        }
      ],
      "name": "isApprovedForAll",
      "outputs": [
        {
          "internalType": "bool",
          "name": "",
          "type": "bool"
        }
      ],
      "stateMutability": "view",
      "type": "function"
    },
    {
      "inputs": [
        {
          "internalType": "string",
          "name": "_title",
          "type": "string"
        },
        {
          "internalType": "string",
          "name": "_message",
          "type": "string"
        },
        {
          "internalType": "string",
          "name": "_location",
          "type": "string"
        }
      ],
      "name": "mint",
      "outputs": [],
      "stateMutability": "nonpayable",
      "type": "function"
    },
    {
      "inputs": [],
      "name": "name",
      "outputs": [
        {
          "internalType": "string",
          "name": "",
          "type": "string"
        }
      ],
      "stateMutability": "view",
      "type": "function"
    },
    {
      "inputs": [
        {
          "internalType": "uint256",
          "name": "tokenId",
          "type": "uint256"
        }
      ],
      "name": "ownerOf",
      "outputs": [
        {
          "internalType": "address",
          "name": "",
          "type": "address"
        }
      ],
      "stateMutability": "view",
      "type": "function"
    },
    {
      "inputs": [
        {
          "internalType": "address",
          "name": "from",
          "type": "address"
        },
        {
          "internalType": "address",
          "name": "to",
          "type": "address"
        },
        {
          "internalType": "uint256",
          "name": "tokenId",
          "type": "uint256"
        }
      ],
      "name": "safeTransferFrom",
      "outputs": [],
      "stateMutability": "nonpayable",
      "type": "function"
    },
    {
      "inputs": [
        {
          "internalType": "address",
          "name": "from",
          "type": "address"
        },
        {
          "internalType": "address",
          "name": "to",
          "type": "address"
        },
        {
          "internalType": "uint256",
          "name": "tokenId",
          "type": "uint256"
        },
        {
          "internalType": "bytes",
          "name": "_data",
          "type": "bytes"
        }
      ],
      "name": "safeTransferFrom",
      "outputs": [],
      "stateMutability": "nonpayable",
      "type": "function"
    },
    {
      "inputs": [
        {
          "internalType": "address",
          "name": "operator",
          "type": "address"
        },
        {
          "internalType": "bool",
          "name": "approved",
          "type": "bool"
        }
      ],
      "name": "setApprovalForAll",
      "outputs": [],
      "stateMutability": "nonpayable",
      "type": "function"
    },
    {
      "inputs": [
        {
          "internalType": "bytes4",
          "name": "interfaceId",
          "type": "bytes4"
        }
      ],
      "name": "supportsInterface",
      "outputs": [
        {
          "internalType": "bool",
          "name": "",
          "type": "bool"
        }
      ],
      "stateMutability": "view",
      "type": "function"
    },
    {
      "inputs": [],
      "name": "symbol",
      "outputs": [
        {
          "internalType": "string",
          "name": "",
          "type": "string"
        }
      ],
      "stateMutability": "view",
      "type": "function"
    },
    {
      "inputs": [
        {
          "internalType": "uint256",
          "name": "_tokenId",
          "type": "uint256"
        }
      ],
      "name": "tokenURI",
      "outputs": [
        {
          "internalType": "string",
          "name": "",
          "type": "string"
        }
      ],
      "stateMutability": "view",
      "type": "function"
    },
    {
      "inputs": [
        {
          "internalType": "address",
          "name": "from",
          "type": "address"
        },
        {
          "internalType": "address",
          "name": "to",
          "type": "address"
        },
        {
          "internalType": "uint256",
          "name": "tokenId",
          "type": "uint256"
        }
      ],
      "name": "transferFrom",
      "outputs": [],
      "stateMutability": "nonpayable",
      "type": "function"
    }
  ],
  "bytecode": "0x608060405260405180610160016040528061012f8152602001620030e561012f91396006908051906020019062000038929190620000ed565b503480156200004657600080fd5b506040518060400160405280600c81526020017f4772617469747564654e465400000000000000000000000000000000000000008152506040518060400160405280600981526020017f47726174697475646500000000000000000000000000000000000000000000008152508160009080519060200190620000cb929190620000ed565b508060019080519060200190620000e4929190620000ed565b50505062000202565b828054620000fb906200019d565b90600052602060002090601f0160209004810192826200011f57600085556200016b565b82601f106200013a57805160ff19168380011785556200016b565b828001600101855582156200016b579182015b828111156200016a5782518255916020019190600101906200014d565b5b5090506200017a91906200017e565b5090565b5b80821115620001995760008160009055506001016200017f565b5090565b60006002820490506001821680620001b657607f821691505b60208210811415620001cd57620001cc620001d3565b5b50919050565b7f4e487b7100000000000000000000000000000000000000000000000000000000600052602260045260246000fd5b612ed380620002126000396000f3fe608060405234801561001057600080fd5b50600436106100ea5760003560e01c806370a082311161008c578063b88d4fde11610066578063b88d4fde1461025b578063c87b56dd14610277578063d645ddf6146102a7578063e985e9c5146102c3576100ea565b806370a08231146101f157806395d89b4114610221578063a22cb4651461023f576100ea565b8063095ea7b3116100c8578063095ea7b31461016d57806323b872dd1461018957806342842e0e146101a55780636352211e146101c1576100ea565b806301ffc9a7146100ef57806306fdde031461011f578063081812fc1461013d575b600080fd5b61010960048036038101906101049190611b8f565b6102f3565b60405161011691906122d9565b60405180910390f35b6101276103d5565b60405161013491906122f4565b60405180910390f35b61015760048036038101906101529190611c78565b610467565b6040516101649190612234565b60405180910390f35b61018760048036038101906101829190611b53565b6104ec565b005b6101a3600480360381019061019e9190611a4d565b610604565b005b6101bf60048036038101906101ba9190611a4d565b610664565b005b6101db60048036038101906101d69190611c78565b610684565b6040516101e89190612234565b60405180910390f35b61020b600480360381019061020691906119e8565b610736565b60405161021891906124d6565b60405180910390f35b6102296107ee565b60405161023691906122f4565b60405180910390f35b61025960048036038101906102549190611b17565b610880565b005b61027560048036038101906102709190611a9c565b610896565b005b610291600480360381019061028c9190611c78565b6108f8565b60405161029e91906122f4565b60405180910390f35b6102c160048036038101906102bc9190611be1565b6109f8565b005b6102dd60048036038101906102d89190611a11565b610af9565b6040516102ea91906122d9565b60405180910390f35b60007f80ac58cd000000000000000000000000000000000000000000000000000000007bffffffffffffffffffffffffffffffffffffffffffffffffffffffff1916827bffffffffffffffffffffffffffffffffffffffffffffffffffffffff191614806103be57507f5b5e139f000000000000000000000000000000000000000000000000000000007bffffffffffffffffffffffffffffffffffffffffffffffffffffffff1916827bffffffffffffffffffffffffffffffffffffffffffffffffffffffff1916145b806103ce57506103cd82610b8d565b5b9050919050565b6060600080546103e4906127ac565b80601f0160208091040260200160405190810160405280929190818152602001828054610410906127ac565b801561045d5780601f106104325761010080835404028352916020019161045d565b820191906000526020600020905b81548152906001019060200180831161044057829003601f168201915b5050505050905090565b600061047282610bf7565b6104b1576040517f08c379a00000000000000000000000000000000000000000000000000000000081526004016104a890612456565b60405180910390fd5b6004600083815260200190815260200160002060009054906101000a900473ffffffffffffffffffffffffffffffffffffffff169050919050565b60006104f782610684565b90508073ffffffffffffffffffffffffffffffffffffffff168373ffffffffffffffffffffffffffffffffffffffff161415610568576040517f08c379a000000000000000000000000000000000000000000000000000000000815260040161055f90612496565b60405180910390fd5b8073ffffffffffffffffffffffffffffffffffffffff16610587610c63565b73ffffffffffffffffffffffffffffffffffffffff1614806105b657506105b5816105b0610c63565b610af9565b5b6105f5576040517f08c379a00000000000000000000000000000000000000000000000000000000081526004016105ec906123d6565b60405180910390fd5b6105ff8383610c6b565b505050565b61061561060f610c63565b82610d24565b610654576040517f08c379a000000000000000000000000000000000000000000000000000000000815260040161064b906124b6565b60405180910390fd5b61065f838383610e02565b505050565b61067f83838360405180602001604052806000815250610896565b505050565b6000806002600084815260200190815260200160002060009054906101000a900473ffffffffffffffffffffffffffffffffffffffff169050600073ffffffffffffffffffffffffffffffffffffffff168173ffffffffffffffffffffffffffffffffffffffff16141561072d576040517f08c379a000000000000000000000000000000000000000000000000000000000815260040161072490612416565b60405180910390fd5b80915050919050565b60008073ffffffffffffffffffffffffffffffffffffffff168273ffffffffffffffffffffffffffffffffffffffff1614156107a7576040517f08c379a000000000000000000000000000000000000000000000000000000000815260040161079e906123f6565b60405180910390fd5b600360008373ffffffffffffffffffffffffffffffffffffffff1673ffffffffffffffffffffffffffffffffffffffff168152602001908152602001600020549050919050565b6060600180546107fd906127ac565b80601f0160208091040260200160405190810160405280929190818152602001828054610829906127ac565b80156108765780601f1061084b57610100808354040283529160200191610876565b820191906000526020600020905b81548152906001019060200180831161085957829003601f168201915b5050505050905090565b61089261088b610c63565b8383611069565b5050565b6108a76108a1610c63565b83610d24565b6108e6576040517f08c379a00000000000000000000000000000000000000000000000000000000081526004016108dd906124b6565b60405180910390fd5b6108f2848484846111d6565b50505050565b606061090382610bf7565b610942576040517f08c379a000000000000000000000000000000000000000000000000000000000815260040161093990612476565b60405180910390fd5b600060066040516020016109569190612188565b604051602081830303815290604052905060006109c760086000868152602001908152602001600020600001600860008781526020019081526020016000206001016109a185611232565b6040516020016109b3939291906121b5565b604051602081830303815290604052611232565b90506000816040516020016109dc9190612212565b6040516020818303038152906040529050809350505050919050565b6000610a0460076113d1565b9050610a1033826113df565b6000604051806080016040528086815260200185815260200184815260200142815250905080600860008481526020019081526020016000206000820151816000019080519060200190610a6592919061180c565b506020820151816001019080519060200190610a8292919061180c565b506040820151816002019080519060200190610a9f92919061180c565b50606082015181600301559050507f0f7c6f88496f0458861c6cb12c8125e87ca2cbccc3766aff082036134f14588f338383604051610ae09392919061229b565b60405180910390a1610af260076113fd565b5050505050565b6000600560008473ffffffffffffffffffffffffffffffffffffffff1673ffffffffffffffffffffffffffffffffffffffff16815260200190815260200160002060008373ffffffffffffffffffffffffffffffffffffffff1673ffffffffffffffffffffffffffffffffffffffff16815260200190815260200160002060009054906101000a900460ff16905092915050565b60007f01ffc9a7000000000000000000000000000000000000000000000000000000007bffffffffffffffffffffffffffffffffffffffffffffffffffffffff1916827bffffffffffffffffffffffffffffffffffffffffffffffffffffffff1916149050919050565b60008073ffffffffffffffffffffffffffffffffffffffff166002600084815260200190815260200160002060009054906101000a900473ffffffffffffffffffffffffffffffffffffffff1673ffffffffffffffffffffffffffffffffffffffff1614159050919050565b600033905090565b816004600083815260200190815260200160002060006101000a81548173ffffffffffffffffffffffffffffffffffffffff021916908373ffffffffffffffffffffffffffffffffffffffff160217905550808273ffffffffffffffffffffffffffffffffffffffff16610cde83610684565b73ffffffffffffffffffffffffffffffffffffffff167f8c5be1e5ebec7d5bd14f71427d1e84f3dd0314c0f7b2291e5b200ac8c7c3b92560405160405180910390a45050565b6000610d2f82610bf7565b610d6e576040517f08c379a0000000000000000000000000000000000000000000000000000000008152600401610d65906123b6565b60405180910390fd5b6000610d7983610684565b90508073ffffffffffffffffffffffffffffffffffffffff168473ffffffffffffffffffffffffffffffffffffffff161480610de857508373ffffffffffffffffffffffffffffffffffffffff16610dd084610467565b73ffffffffffffffffffffffffffffffffffffffff16145b80610df95750610df88185610af9565b5b91505092915050565b8273ffffffffffffffffffffffffffffffffffffffff16610e2282610684565b73ffffffffffffffffffffffffffffffffffffffff1614610e78576040517f08c379a0000000000000000000000000000000000000000000000000000000008152600401610e6f90612336565b60405180910390fd5b600073ffffffffffffffffffffffffffffffffffffffff168273ffffffffffffffffffffffffffffffffffffffff161415610ee8576040517f08c379a0000000000000000000000000000000000000000000000000000000008152600401610edf90612376565b60405180910390fd5b610ef3838383611413565b610efe600082610c6b565b6001600360008573ffffffffffffffffffffffffffffffffffffffff1673ffffffffffffffffffffffffffffffffffffffff1681526020019081526020016000206000828254610f4e91906126c2565b925050819055506001600360008473ffffffffffffffffffffffffffffffffffffffff1673ffffffffffffffffffffffffffffffffffffffff1681526020019081526020016000206000828254610fa591906125e1565b92505081905550816002600083815260200190815260200160002060006101000a81548173ffffffffffffffffffffffffffffffffffffffff021916908373ffffffffffffffffffffffffffffffffffffffff160217905550808273ffffffffffffffffffffffffffffffffffffffff168473ffffffffffffffffffffffffffffffffffffffff167fddf252ad1be2c89b69c2b068fc378daa952ba7f163c4a11628f55a4df523b3ef60405160405180910390a4611064838383611418565b505050565b8173ffffffffffffffffffffffffffffffffffffffff168373ffffffffffffffffffffffffffffffffffffffff1614156110d8576040517f08c379a00000000000000000000000000000000000000000000000000000000081526004016110cf90612396565b60405180910390fd5b80600560008573ffffffffffffffffffffffffffffffffffffffff1673ffffffffffffffffffffffffffffffffffffffff16815260200190815260200160002060008473ffffffffffffffffffffffffffffffffffffffff1673ffffffffffffffffffffffffffffffffffffffff16815260200190815260200160002060006101000a81548160ff0219169083151502179055508173ffffffffffffffffffffffffffffffffffffffff168373ffffffffffffffffffffffffffffffffffffffff167f17307eab39ab6107e8899845ad3d59bd9653f200f220920489ca2b5937696c31836040516111c991906122d9565b60405180910390a3505050565b6111e1848484610e02565b6111ed8484848461141d565b61122c576040517f08c379a000000000000000000000000000000000000000000000000000000000815260040161122390612316565b60405180910390fd5b50505050565b6060600082511415611255576040518060200160405280600081525090506113cc565b6000604051806060016040528060408152602001612e5e604091399050600060036002855161128491906125e1565b61128e9190612637565b600461129a9190612668565b905060006020826112ab91906125e1565b67ffffffffffffffff8111156112ea577f4e487b7100000000000000000000000000000000000000000000000000000000600052604160045260246000fd5b6040519080825280601f01601f19166020018201604052801561131c5781602001600182028036833780820191505090505b509050818152600183018586518101602084015b8183101561138b576003830192508251603f8160121c168501518253600182019150603f81600c1c168501518253600182019150603f8160061c168501518253600182019150603f8116850151825360018201915050611330565b6003895106600181146113a557600281146113b5576113c0565b613d3d60f01b60028303526113c0565b603d60f81b60018303525b50505050508093505050505b919050565b600081600001549050919050565b6113f98282604051806020016040528060008152506115b4565b5050565b6001816000016000828254019250508190555050565b505050565b505050565b600061143e8473ffffffffffffffffffffffffffffffffffffffff1661160f565b156115a7578373ffffffffffffffffffffffffffffffffffffffff1663150b7a02611467610c63565b8786866040518563ffffffff1660e01b8152600401611489949392919061224f565b602060405180830381600087803b1580156114a357600080fd5b505af19250505080156114d457506040513d601f19601f820116820180604052508101906114d19190611bb8565b60015b611557573d8060008114611504576040519150601f19603f3d011682016040523d82523d6000602084013e611509565b606091505b5060008151141561154f576040517f08c379a000000000000000000000000000000000000000000000000000000000815260040161154690612316565b60405180910390fd5b805181602001fd5b63150b7a0260e01b7bffffffffffffffffffffffffffffffffffffffffffffffffffffffff1916817bffffffffffffffffffffffffffffffffffffffffffffffffffffffff1916149150506115ac565b600190505b949350505050565b6115be8383611632565b6115cb600084848461141d565b61160a576040517f08c379a000000000000000000000000000000000000000000000000000000000815260040161160190612316565b60405180910390fd5b505050565b6000808273ffffffffffffffffffffffffffffffffffffffff163b119050919050565b600073ffffffffffffffffffffffffffffffffffffffff168273ffffffffffffffffffffffffffffffffffffffff1614156116a2576040517f08c379a000000000000000000000000000000000000000000000000000000000815260040161169990612436565b60405180910390fd5b6116ab81610bf7565b156116eb576040517f08c379a00000000000000000000000000000000000000000000000000000000081526004016116e290612356565b60405180910390fd5b6116f760008383611413565b6001600360008473ffffffffffffffffffffffffffffffffffffffff1673ffffffffffffffffffffffffffffffffffffffff168152602001908152602001600020600082825461174791906125e1565b92505081905550816002600083815260200190815260200160002060006101000a81548173ffffffffffffffffffffffffffffffffffffffff021916908373ffffffffffffffffffffffffffffffffffffffff160217905550808273ffffffffffffffffffffffffffffffffffffffff16600073ffffffffffffffffffffffffffffffffffffffff167fddf252ad1be2c89b69c2b068fc378daa952ba7f163c4a11628f55a4df523b3ef60405160405180910390a461180860008383611418565b5050565b828054611818906127ac565b90600052602060002090601f01602090048101928261183a5760008555611881565b82601f1061185357805160ff1916838001178555611881565b82800160010185558215611881579182015b82811115611880578251825591602001919060010190611865565b5b50905061188e9190611892565b5090565b5b808211156118ab576000816000905550600101611893565b5090565b60006118c26118bd84612516565b6124f1565b9050828152602081018484840111156118da57600080fd5b6118e584828561276a565b509392505050565b60006119006118fb84612547565b6124f1565b90508281526020810184848401111561191857600080fd5b61192384828561276a565b509392505050565b60008135905061193a81612e01565b92915050565b60008135905061194f81612e18565b92915050565b60008135905061196481612e2f565b92915050565b60008151905061197981612e2f565b92915050565b600082601f83011261199057600080fd5b81356119a08482602086016118af565b91505092915050565b600082601f8301126119ba57600080fd5b81356119ca8482602086016118ed565b91505092915050565b6000813590506119e281612e46565b92915050565b6000602082840312156119fa57600080fd5b6000611a088482850161192b565b91505092915050565b60008060408385031215611a2457600080fd5b6000611a328582860161192b565b9250506020611a438582860161192b565b9150509250929050565b600080600060608486031215611a6257600080fd5b6000611a708682870161192b565b9350506020611a818682870161192b565b9250506040611a92868287016119d3565b9150509250925092565b60008060008060808587031215611ab257600080fd5b6000611ac08782880161192b565b9450506020611ad18782880161192b565b9350506040611ae2878288016119d3565b925050606085013567ffffffffffffffff811115611aff57600080fd5b611b0b8782880161197f565b91505092959194509250565b60008060408385031215611b2a57600080fd5b6000611b388582860161192b565b9250506020611b4985828601611940565b9150509250929050565b60008060408385031215611b6657600080fd5b6000611b748582860161192b565b9250506020611b85858286016119d3565b9150509250929050565b600060208284031215611ba157600080fd5b6000611baf84828501611955565b91505092915050565b600060208284031215611bca57600080fd5b6000611bd88482850161196a565b91505092915050565b600080600060608486031215611bf657600080fd5b600084013567ffffffffffffffff811115611c1057600080fd5b611c1c868287016119a9565b935050602084013567ffffffffffffffff811115611c3957600080fd5b611c45868287016119a9565b925050604084013567ffffffffffffffff811115611c6257600080fd5b611c6e868287016119a9565b9150509250925092565b600060208284031215611c8a57600080fd5b6000611c98848285016119d3565b91505092915050565b611caa816126f6565b82525050565b611cb981612708565b82525050565b6000611cca8261258d565b611cd481856125a3565b9350611ce4818560208601612779565b611ced816128cb565b840191505092915050565b6000611d0382612598565b611d0d81856125b4565b9350611d1d818560208601612779565b611d26816128cb565b840191505092915050565b6000611d3c82612598565b611d4681856125c5565b9350611d56818560208601612779565b611d5f816128cb565b840191505092915050565b6000611d7582612598565b611d7f81856125d6565b9350611d8f818560208601612779565b80840191505092915050565b60008154611da8816127ac565b611db281866125d6565b94506001821660008114611dcd5760018114611dde57611e11565b60ff19831686528186019350611e11565b611de785612578565b60005b83811015611e0957815481890152600182019150602081019050611dea565b838801955050505b50505092915050565b6000611e276013836125d6565b9150611e32826128dc565b601382019050919050565b6000611e4a6032836125c5565b9150611e5582612905565b604082019050919050565b6000611e6d6025836125c5565b9150611e7882612954565b604082019050919050565b6000611e90601c836125c5565b9150611e9b826129a3565b602082019050919050565b6000611eb36024836125c5565b9150611ebe826129cc565b604082019050919050565b6000611ed66019836125c5565b9150611ee182612a1b565b602082019050919050565b6000611ef9602c836125c5565b9150611f0482612a44565b604082019050919050565b6000611f1c600d836125d6565b9150611f2782612a93565b600d82019050919050565b6000611f3f6038836125c5565b9150611f4a82612abc565b604082019050919050565b6000611f62602a836125c5565b9150611f6d82612b0b565b604082019050919050565b6000611f856029836125c5565b9150611f9082612b5a565b604082019050919050565b6000611fa86002836125d6565b9150611fb382612ba9565b600282019050919050565b6000611fcb6020836125c5565b9150611fd682612bd2565b602082019050919050565b6000611fee602c836125c5565b9150611ff982612bfb565b604082019050919050565b6000612011602f836125c5565b915061201c82612c4a565b604082019050919050565b60006120346027836125d6565b915061203f82612c99565b602782019050919050565b6000612057600a836125d6565b915061206282612ce8565b600a82019050919050565b600061207a6021836125c5565b915061208582612d11565b604082019050919050565b600061209d601d836125d6565b91506120a882612d60565b601d82019050919050565b60006120c06031836125c5565b91506120cb82612d89565b604082019050919050565b60006120e3600c836125d6565b91506120ee82612dd8565b600c82019050919050565b600060808301600083015184820360008601526121168282611cf8565b915050602083015184820360208601526121308282611cf8565b9150506040830151848203604086015261214a8282611cf8565b915050606083015161215f606086018261216a565b508091505092915050565b61217381612760565b82525050565b61218281612760565b82525050565b60006121948284611d9b565b915061219f826120d6565b91506121aa82611f0f565b915081905092915050565b60006121c08261204a565b91506121cc8286611d9b565b91506121d782611e1a565b91506121e38285611d9b565b91506121ee82612027565b91506121fa8284611d6a565b915061220582611f9b565b9150819050949350505050565b600061221d82612090565b91506122298284611d6a565b915081905092915050565b60006020820190506122496000830184611ca1565b92915050565b60006080820190506122646000830187611ca1565b6122716020830186611ca1565b61227e6040830185612179565b81810360608301526122908184611cbf565b905095945050505050565b60006060820190506122b06000830186611ca1565b6122bd6020830185612179565b81810360408301526122cf81846120f9565b9050949350505050565b60006020820190506122ee6000830184611cb0565b92915050565b6000602082019050818103600083015261230e8184611d31565b905092915050565b6000602082019050818103600083015261232f81611e3d565b9050919050565b6000602082019050818103600083015261234f81611e60565b9050919050565b6000602082019050818103600083015261236f81611e83565b9050919050565b6000602082019050818103600083015261238f81611ea6565b9050919050565b600060208201905081810360008301526123af81611ec9565b9050919050565b600060208201905081810360008301526123cf81611eec565b9050919050565b600060208201905081810360008301526123ef81611f32565b9050919050565b6000602082019050818103600083015261240f81611f55565b9050919050565b6000602082019050818103600083015261242f81611f78565b9050919050565b6000602082019050818103600083015261244f81611fbe565b9050919050565b6000602082019050818103600083015261246f81611fe1565b9050919050565b6000602082019050818103600083015261248f81612004565b9050919050565b600060208201905081810360008301526124af8161206d565b9050919050565b600060208201905081810360008301526124cf816120b3565b9050919050565b60006020820190506124eb6000830184612179565b92915050565b60006124fb61250c565b905061250782826127de565b919050565b6000604051905090565b600067ffffffffffffffff8211156125315761253061289c565b5b61253a826128cb565b9050602081019050919050565b600067ffffffffffffffff8211156125625761256161289c565b5b61256b826128cb565b9050602081019050919050565b60008190508160005260206000209050919050565b600081519050919050565b600081519050919050565b600082825260208201905092915050565b600082825260208201905092915050565b600082825260208201905092915050565b600081905092915050565b60006125ec82612760565b91506125f783612760565b9250827fffffffffffffffffffffffffffffffffffffffffffffffffffffffffffffffff0382111561262c5761262b61280f565b5b828201905092915050565b600061264282612760565b915061264d83612760565b92508261265d5761265c61283e565b5b828204905092915050565b600061267382612760565b915061267e83612760565b9250817fffffffffffffffffffffffffffffffffffffffffffffffffffffffffffffffff04831182151516156126b7576126b661280f565b5b828202905092915050565b60006126cd82612760565b91506126d883612760565b9250828210156126eb576126ea61280f565b5b828203905092915050565b600061270182612740565b9050919050565b60008115159050919050565b60007fffffffff0000000000000000000000000000000000000000000000000000000082169050919050565b600073ffffffffffffffffffffffffffffffffffffffff82169050919050565b6000819050919050565b82818337600083830152505050565b60005b8381101561279757808201518184015260208101905061277c565b838111156127a6576000848401525b50505050565b600060028204905060018216806127c457607f821691505b602082108114156127d8576127d761286d565b5b50919050565b6127e7826128cb565b810181811067ffffffffffffffff821117156128065761280561289c565b5b80604052505050565b7f4e487b7100000000000000000000000000000000000000000000000000000000600052601160045260246000fd5b7f4e487b7100000000000000000000000000000000000000000000000000000000600052601260045260246000fd5b7f4e487b7100000000000000000000000000000000000000000000000000000000600052602260045260246000fd5b7f4e487b7100000000000000000000000000000000000000000000000000000000600052604160045260246000fd5b6000601f19601f8301169050919050565b7f222c20226465736372697074696f6e223a202200000000000000000000000000600082015250565b7f4552433732313a207472616e7366657220746f206e6f6e20455243373231526560008201527f63656976657220696d706c656d656e7465720000000000000000000000000000602082015250565b7f4552433732313a207472616e736665722066726f6d20696e636f72726563742060008201527f6f776e6572000000000000000000000000000000000000000000000000000000602082015250565b7f4552433732313a20746f6b656e20616c7265616479206d696e74656400000000600082015250565b7f4552433732313a207472616e7366657220746f20746865207a65726f2061646460008201527f7265737300000000000000000000000000000000000000000000000000000000602082015250565b7f4552433732313a20617070726f766520746f2063616c6c657200000000000000600082015250565b7f4552433732313a206f70657261746f7220717565727920666f72206e6f6e657860008201527f697374656e7420746f6b656e0000000000000000000000000000000000000000602082015250565b7f3c2f746578743e3c2f7376673e00000000000000000000000000000000000000600082015250565b7f4552433732313a20617070726f76652063616c6c6572206973206e6f74206f7760008201527f6e6572206e6f7220617070726f76656420666f7220616c6c0000000000000000602082015250565b7f4552433732313a2062616c616e636520717565727920666f7220746865207a6560008201527f726f206164647265737300000000000000000000000000000000000000000000602082015250565b7f4552433732313a206f776e657220717565727920666f72206e6f6e657869737460008201527f656e7420746f6b656e0000000000000000000000000000000000000000000000602082015250565b7f227d000000000000000000000000000000000000000000000000000000000000600082015250565b7f4552433732313a206d696e7420746f20746865207a65726f2061646472657373600082015250565b7f4552433732313a20617070726f76656420717565727920666f72206e6f6e657860008201527f697374656e7420746f6b656e0000000000000000000000000000000000000000602082015250565b7f4552433732314d657461646174613a2055524920717565727920666f72206e6f60008201527f6e6578697374656e7420746f6b656e0000000000000000000000000000000000602082015250565b7f222c2022696d616765223a2022646174613a696d6167652f7376672b786d6c3b60008201527f6261736536342c00000000000000000000000000000000000000000000000000602082015250565b7f7b226e616d65223a202200000000000000000000000000000000000000000000600082015250565b7f4552433732313a20617070726f76616c20746f2063757272656e74206f776e6560008201527f7200000000000000000000000000000000000000000000000000000000000000602082015250565b7f646174613a6170706c69636174696f6e2f6a736f6e3b6261736536342c000000600082015250565b7f4552433732313a207472616e736665722063616c6c6572206973206e6f74206f60008201527f776e6572206e6f7220617070726f766564000000000000000000000000000000602082015250565b7f4772617469747564654e46540000000000000000000000000000000000000000600082015250565b612e0a816126f6565b8114612e1557600080fd5b50565b612e2181612708565b8114612e2c57600080fd5b50565b612e3881612714565b8114612e4357600080fd5b50565b612e4f81612760565b8114612e5a57600080fd5b5056fe4142434445464748494a4b4c4d4e4f505152535455565758595a6162636465666768696a6b6c6d6e6f707172737475767778797a303132333435363738392b2fa2646970667358221220ba3ae466f134ac9ffed65ac27527ace9fe1bb0320ccc43359c5914f5cf920d1064736f6c634300080400333c73766720786d6c6e733d27687474703a2f2f7777772e77332e6f72672f323030302f73766727207072657365727665417370656374526174696f3d27784d696e594d696e206d656574272076696577426f783d273020302033353020333530273e3c7374796c653e2e62617365207b2066696c6c3a2077686974653b20666f6e742d66616d696c793a2073657269663b20666f6e742d73697a653a20323470783b207d3c2f7374796c653e3c726563742077696474683d273130302527206865696768743d2731303025272066696c6c3d27626c61636b27202f3e3c7465787420783d273530252720793d273530252720636c6173733d27626173652720646f6d696e616e742d626173656c696e653d276d6964646c652720746578742d616e63686f723d276d6964646c65273e",
  "linkReferences": {},
  "deployedLinkReferences": {}
}